:0818000024190400000000009F
:08184800C20F040000000000C3
:0818A000900F0400000000009D
:0818E800E40F04000000000001
:08193000061004000000000095
:081BF800851F7800861F7800AC
:101C000018C8BF000000FB006200E10008003C00B3
:101C100074448000F48FB20002003A001868EC00AF
:101C20000200370010C0B30018E8B700B900370051
:101C300018C8BF000000FB006300E10008003C0082
:101C4000744480006220E10002003A001868EC0051
:101C50000200370010C0B30018E8B700AD0037002D
:101C600018C8BF000000FB006400E10008003C0051
:101C7000744480006620E10002003A001868EC001D
:101C80000200370010C0B30018E8B700A100370009
:101C900018C8BF000000FB006400E1000D00340024
:101CA00018C8BF000000FB006600E10009003C000E
:101CB00018C8BF000000FB00E5025000C4802000EF
:101CC000048342008E88BF00004398001868EC002F
:101CD0009000370018C8BF000000FB006700E1005B
:101CE00009003A0018C8BF000000FB00E7025000DE
:101CF00064802000048342008E88BF000043980067
:101D00001868EC008300370018C8BF000000FB0013
:101D10006700E1000D00340018C8BF000000FB00A0
:101D20006900E10009003C0018C8BF000000FB008A
:101D3000E802500004812000048342008E88BF0026
:101D4000004398001868EC007200370018C8BF0004
:101D50000000FB006A00E10009003A0018C8BF005B
:101D60000000FB00E9025000648020000483420070
:101D70008E88BF00004398001868EC0065003700AB
:101D800018C8BF000000FB006A00E1000D0034002D
:101D900018C8BF000000FB006C00E10009003C0017
:101DA00018C8BF000000FB00EB0250004481200077
:101DB000048342008E88BF00004398001868EC003E
:101DC0005400370018C8BF000000FB006C00E100A1
:101DD0000D00340018C8BF000000FB006E00E100D9
:101DE00009003C0018C8BF000000FB00ED025000D5
:101DF000E4802000048342008E88BF0000439800E6
:101E00001868EC004300370018C8BF000000FB0052
:101E10006F00E10009003A0018C8BF000000FB0095
:101E2000ED02500064802000048342008E88BF00D1
:101E3000004398001868EC003600370018C8BF004F
:101E40000000FB006F00E1000D00340018C8BF0067
:101E50000000FB007100E10009003C0018C8BF0051
:101E60000000FB00F00250002481200004834200A7
:101E70008E88BF00004398001868EC0025003700EA
:101E800018C8BF000000FB007200E10009003A0022
:101E900018C8BF000000FB00EF0250006480200063
:101EA000048342008E88BF00004398001868EC004D
:101EB0001800370018C8BF000000FB007200E100E6
:101EC0001400340018C8BF000000FB007400E100DB
:101ED00010003C0018C8BF000000FB00F3025000D7
:101EE00064812000048342008E88BF000043980074
:101EF0001868EC0018C8BF000000FB007500E10086
:101F00000400350014002000D440880010C0B30045
:101F100018E8B7004F037800CF02780000000600F1
:101F20004200F8003600F8003200F800801F780008
:101F3000200020000C000900B01F78002202AE0033
:101F4000FEFF3700301180008CE8B7008D68EF008D
:101F50008C08F8008E08F900FC0D0200000000005B
:101F60008560A900A00120000C0009004F10780036
:101F70004F0078003200F9003600F9004200F90005
:101F8000004006004200F8003600F8003200F80079
:101F9000801F7800200020000C000900B01F78008E
:101FA0000028EC008400A900A00120000C0009001A
:101FB0004F1078004F0078003200F9003600F90029
:101FC0004200F900004006004200F8003600F80028
:101FD0003200F800801F7800200020000C0009006B
:101FE000B01F78000228EC008680A900A001200024
:101FF0000C0009004F1078004F0078003200F90003
:102000003600F9004200F900004006004200F800E6
:102010003600F8003200F800801F78002000200011
:102020000C000900B01F78000428EC0087A0A9006C
:10203000A00120000C0009004F1078004F0078002C
:102040003200F9003600F9004200F90000400600B5
:1020500081E0A900040E20001402880081E0A8009D
:10206000030009002682BF008560A9009560A800D2
:102070009400A8008200A9009680A8008220A900F0
:1020800097A0A8008240A9001021EF008438210009
:102090006408880004022800840888001221EF00E8
:1020A000047D20007408880004012800940888003A
:1020B00081E0A9004220EF0081E0A80000000600B6
:1020C000851F7800C500200003000900B51F7800B7
:1020D0000002780081027800020378008303780010
:1020E0000000EB008000EB000001EB008001EB0042
:1020F0000800A10007F0A600050037000800A000B6
:102100000402EA008582EA000683EA008783EA0087
:102110008504720002003A00870473001500320043
:10212000394720000340A7000B0037004200A900F8
:102130000482D2008582D2000683D2008783D20037
:102140000080D2008180D2000281D2008381D2003F
:102150008904E900F3FF3A00C44CDD004200A90005
:1021600009F0A1000340A10083816C000800A700D2
:1021700003F0A0002501200003000900CF12780021
:10218000CF02780000000600881F78002801200098
:1021900004000900B81F78008786690003047800EE
:1021A00087047800FA7F20004200A9004220A9009D
:1021B00044C4DE00080465000800E0006C00320042
:1021C0004200A9004220A900C4CCDE0089046500B9
:1021D0000900E000660032000005EB00090654002B
:1021E00003003900FC3FB0006100310004003700FB
:1021F0001B4020000B0656005D0039005C003200D9
:102200000004EB008004EB000005EB008005EB0010
:10221000F301B2000340A000F701B2000740A000A4
:102220008C1F78006C03200004005000858058004B
:102230000601590087815900020033000600310071
:1022400006003A000400400085804800060149006D
:1022500087814900010037000800A0000C06E90052
:102260000B0032004200A9000080D2008180D20021
:102270000281D2008381D2004200A9000884D200EA
:102280008984D2000A85D2008B85D200E6FF370010
:102290004F0678000B50A7000100370006003700FA
:1022A0004200A9008B85D3000A85D3008984D3001E
:1022B0000884D300030037000C06E9004200A9009F
:1022C0002B0032004200AF00090037000080D2002E
:1022D0008180D2000281D2008381D20004025000AA
:1022E000858258000603590087835900150039007C
:1022F0000804E80013003A008904E80011003A00DD
:102300000A05E8000F003A008B05E8000D003A00CE
:102310000C06E800160032000A0037000C06E9003F
:10232000130032000B40A700060037004200A9004E
:102330000884D2008984D2000A85D2008B85D2001D
:10234000F8FF37004466DD004200A9000CF0A10050
:102350000DF0A7000CF0A0000B40A1008B016E0057
:102360000A0178008900780008007800050037002D
:1023700000002000010020000200200003002000D7
:1023800000003700A8012000040009004F14780065
:102390004F04780000000600881F78002801200004
:1023A00004000900B81F78008005EB006066B800E3
:1023B0000304780087047800FA7F20004200A90017
:1023C0004220A90044C4DE00080465000800E000C3
:1023D000710032004200A9004220A900C4CCDE00F6
:1023E000890465000900E0006B00320008844400A5
:1023F00009B0A70004003700F83FB10066003200C2
:1024000065003900030037001A402000854245006E
:1024100061003100878669004200A9004220A900BE
:10242000F300B2000340A000F700B2000740A00094
:10243000881F78000124B800002DB8000A05440068
:102440008B854C000C80B0000224B8008B05440042
:102450000C864C00012CB8000005EB008B054400F5
:102460000C864C000A80B0000034B8008B05440094
:102470000C864C000A80B0008005EB000324B800F5
:102480000C0644000A854C000B80B000022CB800FA
:102490000C0644000A854C000B80B0000134B800E3
:1024A0000C0644000A854C000B80B000003CB800CC
:1024B0000C0644000A854C000B80B0000C0078002C
:1024C0000006EB00032CB8000A0544008B854C0085
:1024D0000C80B0000234B8000A0544008B854C0023
:1024E0000C80B0000334B8008B0544000C864C000F
:1024F000013CB8000A0544008B854C000C80B000FC
:10250000023CB8008B0544000C864C00033CB8002C
:102510000C0644008A0078000B0178008C017800DA
:10252000540020004200A9008381D3000281D3001F
:102530008180D3000080D3000402E900F9FF3A0053
:102540004F0478000804E800010370000100320025
:102550000200370003037100080032000340A700A7
:10256000060037004200A9000080D2008180D2001E
:102570000281D2008381D2000804E9004444DD00D6
:1025800003F0A1000DF0A70003F0A0000340A1009C
:1025900083016C00030037006000B8006001B800E0
:1025A00000003700A8012000040009004F14780043
:1025B0004F04780000000600851F7800C500200049
:1025C00005000900B51F7800030478008203780035
:1025D0000103780080027800830478003B472000E4
:1025E000C499DE00FA7F20008301650083855500D1
:1025F000F801B2000840A0000000EB008000EB00F2
:102600000001EB008001EB004200A9000884D30028
:102610008783D3000683D3008582D3008381D300D0
:102620000281D3008180D3000080D3008B05E900B4
:10263000F5FF3A0009F0A600050037000000EA00A7
:102640008180EA000281EA008381EA00000037000D
:102650006501200005000900CF127800CF02780044
:1026600000000600851F7800861F7800871F78000D
:10267000881F78005E08E2003F003A00E4428000D4
:10268000732E20000418E10007003C00047D2000A8
:10269000340C8800C442A800C042A900C482A9002A
:1026A000C082A90033003700E44280006020E100CE
:1026B0002B0034005C88BF008001EB0000F0A70015
:1026C0008081EB0083007800030178006010020035
:1026D0000000000004002000050020000680230008
:1026E00077082400C4100200000000008002780077
:1026F000010378008203780003047800851F7800C6
:10270000861F7800871F7800050078008600780013
:1027100007017800880178000400200005002000EF
:1027200006002400F7092400CC110200000000007C
:10273000CF0378004F037800CF027800DC1202004C
:102740000000000080027800350C8800C442A80018
:10275000C042A900C482A900C082A90005003700B8
:102760008621EF00C442A900C042A900C482A9008A
:10277000C082A90041003700F44280006120E100DE
:102780003E003A00E4428000732E20000418E1006D
:1027900007003C00047D2000340C8800C442A900DE
:1027A000C042A900C482A800C082A900330037003B
:1027B000E44280006020E1002B0034005C88BF0010
:1027C0008001EB0000F0A7008081EB00830078001F
:1027D00003017800601002000000000004002000E7
:1027E000050020000680230077082400C4100200A2
:1027F0000000000080027800010378008203780066
:1028000003047800851F7800861F7800871F7800F2
:1028100005007800860078000701780088017800BC
:10282000040020000500200006002400F709240011
:10283000CC11020000000000CF0378004F037800A5
:10284000CF027800DC120200000000008002780055
:10285000350C8800C442A900C042A900C482A80067
:10286000C082A900050037008621EF00C442A900FC
:10287000C042A900C482A900C082A9004F04780008
:10288000CF0378004F037800CF02780000000600E5
:102890000000E0004220AF00040037007B3E09004A
:1028A000000000000000E900FCFF3A000000060004
:1028B000851F7800861F7800871F7800881F7800A2
:1028C0005E08E2003F003A00E4428000732E2000E0
:1028D0000418E10007003C00047D2000640C88001F
:1028E000C402A800C002A900C422A900C022A900F5
:1028F00033003700E44280006020E1002B00340008
:102900005C88BF008001EB0000F0A7008081EB0035
:1029100083007800030178006010020000000000CE
:102920000400200005002000068023007708240012
:10293000C41002000000000080027800010378004B
:102940008203780003047800851F7800861F7800D2
:10295000871F78000500780086007800070178005E
:1029600088017800040020000500200006002400F3
:10297000F7092400CC11020000000000CF0378000A
:102980004F037800CF027800DC1202000000000044
:1029900080027800650C8800C402A800C002A9006B
:1029A000C422A900C022A900050037008C21EF0035
:1029B000C402A900C002A900C422A900C022A90023
:1029C00041003700F44280006120E1003E003A00FF
:1029D000E4428000732E20000418E10007003C0050
:1029E000047D2000640C8800C402A900C002A90074
:1029F000C422A800C022A90033003700E4428000AE
:102A00006020E1002B0034005C88BF008001EB00F7
:102A100000F0A7008081EB008300780003017800BC
:102A200060100200000000000400200005002000EB
:102A30000680230077082400C41002000000000074
:102A40008002780001037800820378000304780094
:102A5000851F7800861F7800871F780005007800A2
:102A600086007800070178008801780004002000C3
:102A70000500200006002400F7092400CC11020004
:102A800000000000CF0378004F037800CF027800E9
:102A9000DC1202000000000080027800650C880053
:102AA000C402A900C002A900C422A800C022A90033
:102AB000050037008C21EF00C402A900C002A90064
:102AC000C422A900C022A9004F047800CF037800D7
:102AD0004F037800CF02780000000600851F7800C1
:102AE00014002000D4418800D44180006120E1001E
:102AF00012003A00C8A2A800CAA2AE000600370021
:102B00005C28EF005E28EF0058140200000000006F
:102B10003A28EF0008003700C8A2A800CAA2AF00F8
:102B200005003700C42B2000E44288005E28EF0037
:102B30005814020000000000EBFF3700CF027800BD
:102B400000000600851F7800861F7800871F780028
:102B5000881F78005E08E2003F003A00E4428000EF
:102B6000732E20000418E10007003C00047D2000C3
:102B7000040C8800CC02A800C802A900CC22A9003D
:102B8000C822A90033003700E44280006020E10041
:102B90002B0034005C88BF008001EB0000F0A70030
:102BA0008081EB0083007800030178006010020050
:102BB0000000000004002000050020000680230023
:102BC00077082400C4100200000000008002780092
:102BD000010378008203780003047800851F7800E1
:102BE000861F7800871F780005007800860078002F
:102BF000070178008801780004002000050020000B
:102C000006002400F7092400CC1102000000000097
:102C1000CF0378004F037800CF027800DC12020067
:102C20000000000080027800050C8800CC02A8009B
:102C3000C802A900CC22A900C822A90005003700BB
:102C40008021EF00CC02A900C802A900CC22A90073
:102C5000C822A90041003700F44280006120E10051
:102C60003E003A00E4428000732E20000418E10088
:102C700007003C00047D2000040C8800CC02A90061
:102C8000C802A900CC22A800C822A900330037003E
:102C9000E44280006020E1002B0034005C88BF002B
:102CA0008001EB0000F0A7008081EB00830078003A
:102CB0000301780060100200000000000400200002
:102CC000050020000680230077082400C4100200BD
:102CD0000000000080027800010378008203780081
:102CE00003047800851F7800861F7800871F78000E
:102CF00005007800860078000701780088017800D8
:102D0000040020000500200006002400F70924002C
:102D1000CC11020000000000CF0378004F037800C0
:102D2000CF027800DC120200000000008002780070
:102D3000050C8800CC02A900C802A900CC22A8007A
:102D4000C822A900050037008021EF00CC02A900AD
:102D5000C802A900CC22A900C822A9004F0478000B
:102D6000CF0378004F037800CF0278000000060000
:102D7000851F780014002000A44188003628EF0049
:102D8000A44180006120E1003B003A003608E200E7
:102D900013003A00C882A800CA82AE0007003700BC
:102DA0005C28EF0014002000F44288003213020077
:102DB000000000003628EC0008003700C882A80098
:102DC000CA82AF0005003700C42B2000E44288000F
:102DD0005E28EF00321302000000000025003700DB
:102DE000B44180006120E1000E003A001409200087
:102DF000940C8800803E200048140200000000006F
:102E000044062000C40C8800803E200048140200C4
:102E1000000000006E150200000000003628EC00E3
:102E200014003700B44180006220E10011003A0034
:102E3000C9C2A800CBC2AE00060037005C28EF0074
:102E40005E28EF00A2150200000000003428EF0009
:102E500008003700C9C2A800CBC2AF000500370088
:102E6000C42B2000E44288005E28EF00A215020077
:102E700000000000C2FF3700CF027800000006000B
:102E8000851F780014002000A4428800A44280001E
:102E90006120E1001E003A0084428000234080004F
:102EA0000300520056A8B700B44280006220B80068
:102EB00056A8B7005688BF0000F0A60003003700F0
:102EC00004002000B342800003005200800278001A
:102ED0007E28E10007003C005C28EF005208F80063
:102EE0005E08F90058140200000000005428EF00AA
:102EF000060037005608F8005C08F9005208F80090
:102F00005E08F9005814020000000000DFFF3700DF
:102F1000CF02780000000600851F78001400200012
:102F2000A4428800A44280006120E1001E003A0013
:102F300084428000034080000300520056A8B7007E
:102F4000B44280006620B80056A8B7005688BF007B
:102F500000F0A6000300370004002000B342800008
:102F600003005200800278007E28E10007003C0048
:102F70005C28EF005208F8005E08F900A215020074
:102F8000000000005428EF00060037005608F80043
:102F90005C08F9005208F8005E08F900A21502006A
:102FA00000000000DFFF3700CF02780000000600BD
:102FB000851F7800861F7800871F78001400200086
:102FC000A4428800A44280006120E1002C003A0065
:102FD00084428000134080000300520056A8B700CE
:102FE0005688BF008001EB0000F0A7008081EB0055
:102FF00083007800030178006010020000000000E8
:10300000040020000500200006002000C700240066
:10301000CC11020000000000DC12020000000000E1
:1030200056A8B7005688BF0000F0A600030037007E
:1030300004002000B34280000300520080027800A8
:103040007E28E10007003C005C28EF005208F800F1
:103050005E08F90032130200000000005428EF005F
:10306000060037005608F8005C08F9005208F8001E
:103070005E08F9003213020000000000D1FF3700A3
:10308000CF0378004F037800CF02780000000600DD
:1030900014002000044288004228EF00044280000F
:1030A0006120E10023003A004208E20009003A00F2
:1030B0003408F8005008F9003608F8005208F90002
:1030C0008C17020000000000140020001442880049
:1030D00017003700144280006120E10009003A0027
:1030E0003808F8005008F9003A08F8005208F900CA
:1030F000D8170200000000002400200014428800BD
:103100000B003700144280006220E10008003A0002
:103110003C08F8005008F9003E08F8005208F90091
:1031200040170200000000004228EF004028EF0096
:10313000DAFF370000000600A4418000E3152000FC
:103140000418E10011003400A44180006302420031
:10315000A4418800C4082000B44188003688BF001C
:10316000A44180000020E100070035003608F80087
:103170009201F90040012000481402000000000004
:103180003628EC00F5FF37000D003700C40820009A
:10319000C44188003888BF00A44180000020E100BD
:1031A000070035003808F8009201F90040012000BE
:1031B00048140200000000003828EC00F5FF37003A
:1031C000000006003608E2000E003A00A4052000C8
:1031D000C44188003888BF00A44180000020E1007D
:1031E000070035003808F8009801F9004001200078
:1031F00048140200000000003828EC00F5FF3700FA
:1032000010003700B44180006120E1000D003A0059
:10321000A4052000D44188003A88BF00A441800062
:103220000020E100070035003A08F8009801F90095
:103230004006200048140200000000003A28EC007C
:10324000F5FF3700000006000F782200F07F220013
:1032500020A0B70000000000404424004005880082
:1032600081E0A8006004200042E7B700700520005C
:1032700042E7B70042C7A900F063200080A6B7006C
:1032800030F0230082A6B700C0F02300A4A6B70048
:1032900020012000C2A6B70050312100C8A6B70007
:1032A00040012000CAA6B70000302000CCA6B7001D
:1032B00000602100CEA6B7006004200042E7B700FE
:1032C0007005200042E7B70042C7A8004427EF007E
:1032D0000400280004118800044020001411880014
:1032E0002062A80024022000441188000028EF007A
:1032F0000228EF000428EF0010C0B30018E8B70060
:103300001A28EF002CA3EF000628EF000828EF0092
:103310000A28EF000C28EF000E28EF001028EF001D
:103320001228EF001428EF001628EF0028100200E2
:1033300000000000E4002000240C8800E4002000CD
:10334000540C8800E4002000840C880064002000F5
:10335000B40C880064002000E40C8800B816020059
:10336000000000001C28EF001E28EF001E28EF00C0
:103370001C28EF000028EF000228EF000428EF00CF
:10338000D44080006120E1009A0035001A28EF0047
:1033900001822000C280200001000900B25878009C
:1033A000218220000281200001000900B25878002B
:1033B000418220004281200001000900B2587800BB
:1033C00061822000E280200001000900B2587800EC
:1033D000818220002281200001000900B25878007B
:1033E000A18220006281200001000900B25878000B
:1033F00004E02100844288001400200094428800E8
:1034000040170200000000001E08E20079003A00A8
:103410000028EF000228EF000428EF001C08E2005B
:1034200020003A0006C8BF0008E0B7008401FB0096
:10343000B341880007C8BF00804178000301FB004A
:10344000D24188002008F8003408F9002208F8006A
:103450003808F900C28F2000E241880012002000E5
:10346000F241880048180200000000002408F8001B
:103470003408F9009C18020000000000C40D200070
:10348000A44188003628EF00E21802000000000086
:10349000803E200048140200000000001C28EC00C0
:1034A00053003700E44080006120E10010003A0042
:1034B0000490210084428800140020009442880077
:1034C000401702000000000044062000A4418800CC
:1034D0003628EF00E218020000000000803E2000C5
:1034E00048140200000000001C28EC0040003700D7
:1034F000E44080006220E1000E003A0004AF2000AA
:10350000844288005228EF004017020000000000AB
:103510002A08F8003408F9009C1802000000000096
:10352000803E200048140200000000001C28EC002F
:103530002F003700E44080006320E10017003A00CC
:1035400008C8BF0008E0B7008401FB00B341880051
:1035500009C8BF00804178000301FB00D241880008
:103560002608F8003408F9002808F8003808F9009F
:10357000823E2000E241880012002000F2418800D3
:103580004818020000000000401F200048140200FC
:10359000000000001C28EC0015003700E44080000B
:1035A0006420E1000F003A00840C2000A441880050
:1035B0003628EF00E218020000000000803E2000E4
:1035C0004814020000000000843222008442880077
:1035D0005228EF0040170200000000001C28EC00F9
:1035E00003003700B8160200000000001E28EC009F
:0C35F00085FF37005DFF37000040FE0043
:020000040001F9
:0807F800F7F900FF7F3F00FF4D
:00000001FF
;PIC24FJ48GA002
;CRC=90A0  CREATED="16-Nov-18 20:06"
