:08180000F410040000000000D8
:081848006A0F0400000000001B
:0818A000380F040000000000F5
:0818E8008C0F04000000000059
:08193000AE0F040000000000EE
:081BF8003220EF0083E0200021
:101C0000008041001040BA000160EF0000000600B3
:101C10000A72000065730000756C000074200000FB
:101C20003D200000256400000A000000851F7800A8
:101C3000861F780012C8BF000000FB006200E100B0
:101C400008003C00C4408000F48FB20002003A005B
:101C50001268EC000200370010C0B30012E8B700B1
:101C60008000370012C8BF000000FB006300E100E5
:101C700005003C00C44080006220E10001003A0001
:101C80001268EC007700370012C8BF000000FB00AC
:101C90006400E10005003C00C44080006820E100D1
:101CA00001003A001268EC006E00370012C8BF0055
:101CB0000000FB006400E1000D00340012C8BF000A
:101CC0000000FB006600E10009003C0012C8BF00F4
:101CD0000000FB00E5025000A480200004834200C5
:101CE0001888BF00004398001268EC005D003700C0
:101CF00012C8BF000000FB006600E1000D003400C8
:101D000012C8BF000000FB006800E10009003C00B1
:101D100012C8BF000000FB00E7025000E480200072
:101D2000048342001888BF00004398001268EC004A
:101D30004C00370012C8BF000000FB006800E10043
:101D40000D00340012C8BF000000FB006A00E10073
:101D500009003C0012C8BF000000FB00E90250006F
:101D600064802000048342001888BF00004398006C
:101D70001268EC003B00370012C8BF000000FB00F7
:101D80006A00E1000D00340012C8BF000000FB0033
:101D90006C00E10009003C0012C8BF000000FB001D
:101DA000EB025000C4802000048342001888BF006A
:101DB000004398001268EC002A00370012C8BF00E8
:101DC0000000FB006C00E1000D00340012C8BF00F1
:101DD0000000FB006E00E10009003C0012C8BF00DB
:101DE0000000FB00ED02500004812000048342004B
:101DF0001888BF00004398001268EC0019003700F3
:101E000012C8BF000000FB006E00E1000D003400AE
:101E100012C8BF000000FB007000E10009003C0098
:101E200012C8BF000000FB00ED02500064802000DB
:101E3000048342001888BF00004398001268EC0039
:101E40000800370012C8BF000000FB007000E1006E
:101E50000400340014002000A440880010C0B30027
:101E600012E8B7004F037800CF02780000000600A8
:101E70004200F8003600F8003200F800801F7800B9
:101E8000200020000C000900B01F78002202AE00E4
:101E9000FEFF37003011800016E8B7001768EF002A
:101EA0001608F8001808F900160E020000000000DD
:101EB0008560A900A00120000C0009004F107800E7
:101EC0004F0078003200F9003600F9004200F900B6
:101ED000004006004200F8003600F8003200F8002A
:101EE000801F7800200020000C000900B01F78003F
:101EF0000028EC008400A900A00120000C000900CB
:101F00004F1078004F0078003200F9003600F900D9
:101F10004200F900004006004200F8003600F800D8
:101F20003200F800801F7800200020000C0009001B
:101F3000B01F78000228EC008680A900A0012000D4
:101F40000C0009004F1078004F0078003200F900B3
:101F50003600F9004200F900004006004200F80097
:101F60003600F8003200F800801F780020002000C2
:101F70000C000900B01F78000428EC0087A0A9001D
:101F8000A00120000C0009004F1078004F007800DD
:101F90003200F9003600F9004200F9000040060066
:101FA00081E0A900040E20001402880081E0A8004E
:101FB000030009002682BF008560A9009560A80083
:101FC0009400A8008200A9009680A8008220A900A1
:101FD00097A0A8008240A9001221EF00047D2000F4
:101FE00074088800040128009408880081E0A90092
:101FF0004220EF0081E0A80000000600851F780065
:10200000C500200003000900B51F780000F0A600FD
:102010000C0037000000EA000480A00004F0A600D5
:1020200008003700801F7800D00220002322AF0074
:10203000FEFF370024A2B7004F0078000480A10003
:102040000860ED008002EB008003780084047800D3
:1020500004F0A1000404E00006003A0009F0A70023
:1020600002003700050020000F00370005002000A7
:102070000D003700E64252000A003900000320003C
:1020800009F0A600000220002322AF00FEFF370067
:1020900024A2B7008502E900FBFF3B0055002000A9
:1020A0000100370084027800640020000580A7004A
:1020B0000402E80005E0A00009F0A70005F0A00078
:1020C00008712200110009008883D800AA100200BC
:1020D0000000000081037800883E20001100090004
:1020E0008883D800AA100200000000008103780055
:1020F00048062000110009008883D800AA100200B9
:102100000000000081037800A800200011000900F1
:102110008883D800AA100200000000000980A600F1
:1021200005003700D00220002322AF00FEFF370059
:1021300024A2B7000980A1000003200000C04000D5
:10214000500188002322AF00FEFF370024A2B70011
:1021500020003700060320000000E0000E003A00D7
:1021600005E0A600160037000402E9000524E1009E
:10217000020032004200AF00000006000000E00054
:1021800005003A0005E0A6000D00370005F0A600A6
:10219000060220000A00370005E0A1000980A60021
:1021A0000700370000057800D00220002322AF008E
:1021B000FEFF370024A2B7000980A1000A007800C2
:1021C000004043002322AF00FEFF370024A2B700E7
:1021D000000006002501200003000900CF1278004E
:1021E000CF027800000006000F782200F07F220066
:1021F00020A0B700000000004044240040058800F3
:1022000081E0A8006004200042E7B70070052000CC
:1022100042E7B70042C7A900F063200080A6B700DC
:1022200030F0230082A6B700C0F02300A4A6B700B8
:1022300020012000C2A6B70050312100C8A6B70077
:1022400040012000CAA6B70000302000CCA6B7008D
:1022500000602100CEA6B7006004200042E7B7006E
:102260007005200042E7B70042C7A8004427EF00EE
:102270000400280004118800044020001411880084
:102280002062A80024022000441188000028EF00EA
:102290000228EF000428EF0010C0B30012E8B700D6
:1022A0001428EF002CA3EF000628EF000828EF0009
:1022B0000A28EF000C28EF000E28EF001028EF008E
:1022C000D00F020000000000E4002000240C880071
:1022D000E4002000540C8800E4002000840C8800F6
:1022E000A44080006120E100550035001428EF0073
:1022F00001002000010078000160EF00FC0D0200E9
:10230000000000008100E8002322AF00FEFF37003C
:1023100024A2B700900020000008E600F5FF370077
:1023200006C8BF000000FB0004002000FE0F0200F2
:10233000000000002322AF00FEFF3700A4002000B1
:102340002411880001002000010078000160EF00E6
:10235000FC0D0200000000008100E8002322AF0015
:10236000FEFF370024A2B700900020000008E6001E
:10237000F5FF370007C8BF000000FB000400200085
:10238000FE0F0200000000002322AF00FEFF370016
:10239000A400200024118800010020000100780022
:1023A0000160EF00FC0D0200000000008100E80069
:1023B0002322AF00FEFF370024A2B70090002000C8
:1023C0000008E600F5FF370008C8BF000000FB006A
:1023D00004002000FE0F0200000000002322AF00D6
:1023E000FEFF3700A4002000241188000100200017
:1023F000010078000160EF00FC0D02000000000009
:102400008100E8002322AF00FEFF370024A2B700BE
:10241000900020000008E600F5FF370009C8BF0063
:102420000000FB0004002000FE0F0200000000007E
:102430002322AF00FEFF3700A400200024118800F3
:08244000A7FF37000040FE0079
:020000040001F9
:0807F800F7F900FF7F3F00FF4D
:00000001FF
;PIC24FJ48GA002
;CRC=557B  CREATED="05-Nov-18 09:36"
