:0818000058190400000000006B
:08184800840F04000000000001
:0818A000520F040000000000DB
:0818E800A60F0400000000003F
:08193000C80F040000000000D4
:081BF800851F7800861F7800AC
:101C000014C8BF000000FB006200E10008003C00B7
:101C1000F4438000F48FB20002003A001468EC0034
:101C20000200370010C0B30014E8B7009A00370074
:101C300014C8BF000000FB006300E10005003C0089
:101C4000F44380006220E10001003A001468EC00D7
:101C50009100370014C8BF000000FB006400E100E1
:101C600005003C00F44380006620E10001003A00DA
:101C70001468EC008800370014C8BF000000FB00A7
:101C80006400E1000D00340014C8BF000000FB0038
:101C90006600E10009003C0014C8BF000000FB0022
:101CA000E5025000C4802000048342007E88BF000B
:101CB000004398001468EC007700370014C8BF0098
:101CC0000000FB006700E10009003A0014C8BF00F3
:101CD0000000FB00E7025000648020000483420003
:101CE0007E88BF00004398001468EC006A0037004B
:101CF00014C8BF000000FB006700E1000D003400C5
:101D000014C8BF000000FB006900E10009003C00AE
:101D100014C8BF000000FB00E8025000048120004E
:101D2000048342007E88BF00004398001468EC00E2
:101D30005900370014C8BF000000FB006900E10033
:101D40000D00340014C8BF000000FB006B00E10070
:101D500009003C0014C8BF000000FB00E90250006D
:101D600064802000048342007E88BF000043980006
:101D70001468EC004800370014C8BF000000FB00E6
:101D80006B00E1000D00340014C8BF000000FB0030
:101D90006D00E10009003C0014C8BF000000FB001A
:101DA000EC025000E4802000048342007E88BF00E3
:101DB000004398001468EC003700370014C8BF00D7
:101DC0000000FB006E00E10009003A0014C8BF00EB
:101DD0000000FB00EB0250006480200004834200FE
:101DE0007E88BF00004398001468EC002A0037008A
:101DF00014C8BF000000FB006E00E1000D003400BD
:101E000014C8BF000000FB007000E10009003C00A6
:101E100014C8BF000000FB00EF0250002481200026
:101E2000048342007E88BF00004398001468EC00E1
:101E30001900370014C8BF000000FB007000E1006B
:101E40000D00340014C8BF000000FB007200E10068
:101E500009003C0014C8BF000000FB00ED02500068
:101E600064802000048342007E88BF000043980005
:101E70001468EC000800370014C8BF000000FB0025
:101E80007200E1000400340014002000B440880017
:101E900010C0B30014E8B7004F037800CF027800F9
:101EA000000006004200F8003600F8003200F8009A
:101EB000801F7800200020000C000900B01F78006F
:101EC0002202AE00FEFF3700301180007CE8B70030
:101ED0007D68EF007C08F8007E08F900FC0D020028
:101EE000000000008560A900A00120000C0009008E
:101EF0004F1078004F0078003200F9003600F900EA
:101F00004200F900004006004200F8003600F800E8
:101F10003200F800801F7800200020000C0009002B
:101F2000B01F78000028EC008400A900A001200068
:101F30000C0009004F1078004F0078003200F900C3
:101F40003600F9004200F900004006004200F800A7
:101F50003600F8003200F800801F780020002000D2
:101F60000C000900B01F78000228EC008680A90050
:101F7000A00120000C0009004F1078004F007800ED
:101F80003200F9003600F9004200F9000040060076
:101F90004200F8003600F8003200F800801F780098
:101FA000200020000C000900B01F78000428EC007D
:101FB00087A0A900A00120000C0009004F107800A4
:101FC0004F0078003200F9003600F9004200F900B5
:101FD0000040060081E0A900040E200014028800E1
:101FE00081E0A800030009002682BF008560A900E7
:101FF0009560A8009400A8008200A9009680A8001F
:102000008220A90097A0A8008240A9001021EF001B
:1020100084382100640888000402280084088800AD
:102020001221EF00047D20007408880004012800BC
:102030009408880081E0A9004220EF0081E0A80018
:1020400000000600851F7800C5002000030009007D
:10205000B51F780000027800810278000203780042
:10206000830378000000EB008000EB000001EB0030
:102070008001EB000800A10007F0A6000500370072
:102080000800A0000402EA008582EA000683EA0054
:102090008783EA008504720002003A008704730017
:1020A00015003200394720000340A7000B0037001D
:1020B0004200A9000482D2008582D2000683D200A9
:1020C0008783D2000080D2008180D2000281D200BA
:1020D0008381D2008904E900F3FF3A00C44CDD009B
:1020E0004200A90009F0A1000340A10083816C0017
:1020F0000800A70003F0A00025012000030009004C
:10210000CF127800CF02780000000600881F780008
:102110002801200004000900B81F780087866900A4
:102120000304780087047800FA7F20004200A900A9
:102130004220A90044C4DE00080465000800E00055
:102140006C0032004200A9004220A900C4CCDE008D
:10215000890465000900E000660032000005EB001C
:102160000906540003003900FC3FB0006100310053
:10217000040037001B4020000B0656005D003900AC
:102180005C0032000004EB008004EB000005EB0073
:102190008005EB00F301B2000340A000F701B2009C
:1021A0000740A0008C1F78006C0320000400500042
:1021B00085805800060159008781590002003300CC
:1021C0000600310006003A00040040008580480007
:1021D0000601490087814900010037000800A0007E
:1021E0000C06E9000B0032004200A9000080D2007A
:1021F0008180D2000281D2008381D2004200A900F6
:102200000884D2008984D2000A85D2008B85D2004E
:10221000E6FF37004F0678000B50A700010037009B
:10222000060037004200A9008B85D3000A85D30041
:102230008984D3000884D300030037000C06E9002A
:102240004200A9002B0032004200AF000900370015
:102250000080D2008180D2000281D2008381D2002E
:1022600004025000858258000603590087835900F4
:10227000150039000804E80013003A008904E8005A
:1022800011003A000A05E8000F003A008B05E8004B
:102290000D003A000C06E800160032000A00370074
:1022A0000C06E900130032000B40A70006003700BF
:1022B0004200A9000884D2008984D2000A85D20095
:1022C0008B85D200F8FF37004466DD004200A9008C
:1022D0000CF0A1000DF0A7000CF0A0000B40A10035
:1022E0008B016E000A0178008900780008007800F0
:1022F000050037000000200001002000020020003F
:102300000300200000003700A8012000040009009D
:102310004F1478004F04780000000600881F7800F2
:102320002801200004000900B81F78008005EB0098
:102330006066B8000304780087047800FA7F200004
:102340004200A9004220A90044C4DE000804650040
:102350000800E000710032004200A9004220A900FC
:10236000C4CCDE00890465000900E0006B00320087
:102370000884440009B0A70004003700F83FB1000A
:102380006600320065003900030037001A40200063
:102390008542450061003100878669004200A9003E
:1023A0004220A900F300B2000340A000F700B200F1
:1023B0000740A000881F78000124B800002DB80055
:1023C0000A0544008B854C000C80B0000224B80044
:1023D0008B0544000C864C00012CB8000005EB0076
:1023E0008B0544000C864C000A80B0000034B80015
:1023F0008B0544000C864C000A80B0008005EB0081
:102400000324B8000C0644000A854C000B80B00081
:10241000022CB8000C0644000A854C000B80B0006A
:102420000134B8000C0644000A854C000B80B00053
:10243000003CB8000C0644000A854C000B80B0003C
:102440000C0078000006EB00032CB8000A054400DD
:102450008B854C000C80B0000234B8000A054400A3
:102460008B854C000C80B0000334B8008B05440011
:102470000C864C00013CB8000A0544008B854C00DA
:102480000C80B000023CB8008B0544000C864C0068
:10249000033CB8000C0644008A0078000B01780069
:1024A0008C017800540020004200A9008381D300F1
:1024B0000281D3008180D3000080D3000402E900B0
:1024C000F9FF3A004F0478000804E80001037000A7
:1024D00001003200020037000303710008003200DF
:1024E0000340A700060037004200A9000080D20088
:1024F0008180D2000281D2008381D2000804E900E9
:102500004444DD0003F0A1000DF0A70003F0A0009B
:102510000340A10083016C00030037006000B80095
:102520006001B80000003700A80120000400090085
:102530004F1478004F04780000000600851F7800D3
:10254000C500200005000900B51F780003047800CD
:102550008203780001037800800278008304780009
:102560003B472000C499DE00FA7F2000830165000C
:1025700083855500F801B2000840A0000000EB0080
:102580008000EB000001EB008001EB004200A9009D
:102590000884D3008783D3000683D3008582D300C9
:1025A0008381D3000281D3008180D3000080D300D7
:1025B0008B05E900F5FF3A0009F0A6000500370099
:1025C0000000EA008180EA000281EA008381EA00DB
:1025D000000037006501200005000900CF127800D7
:1025E000CF02780000000600851F7800861F780063
:1025F000871F7800881F78005608E2003F003A00E5
:10260000A4428000732E20000418E10007003C0063
:10261000047D2000340C8800C442A800C042A900F8
:10262000C482A900C082A90033003700A442800000
:102630006020E1002B0034005488BF008001EB00D3
:1026400000F0A7008081EB00830078000301780090
:1026500022100200000000000400200005002000FD
:102660000680230077082400861002000000000086
:102670008002780001037800820378000304780068
:10268000851F7800861F7800871F78000500780076
:102690008600780007017800880178000400200097
:1026A0000500200006002400F70924008E11020016
:1026B00000000000CF0378004F037800CF027800BD
:1026C0009E1202000000000080027800350C880095
:1026D000C442A800C042A900C482A900C082A900C7
:1026E000050037008621EF00C442A900C042A900BE
:1026F000C482A900C082A90041003700B442800012
:102700006120E1003E003A00A4428000732E2000C8
:102710000418E10007003C00047D2000340C880010
:10272000C442A900C042A900C482A800C082A90076
:1027300033003700A44280006020E1002B00340009
:102740005488BF008001EB0000F0A7008081EB00FF
:1027500083007800030178002210020000000000CE
:1027600004002000050020000680230077082400D4
:10277000861002000000000080027800010378004B
:102780008203780003047800851F7800861F780094
:10279000871F780005007800860078000701780020
:1027A00088017800040020000500200006002400B5
:1027B000F70924008E11020000000000CF0378000A
:1027C0004F037800CF0278009E1202000000000044
:1027D00080027800350C8800C442A900C042A900DC
:1027E000C482A800C082A900050037008621EF003E
:1027F000C442A900C042A900C482A900C082A900A5
:102800004F047800CF0378004F037800CF027800A0
:1028100000000600851F7800861F7800871F78005B
:10282000881F78005608E2003F003A00A44280006A
:10283000732E20000418E10007003C00047D2000F6
:10284000640C8800C402A800C002A900C422A90028
:10285000C022A90033003700A44280006020E100BC
:102860002B0034005488BF008001EB0000F0A7006B
:102870008081EB00830078000301780022100200C1
:102880000000000004002000050020000680230056
:102890007708240086100200000000008002780003
:1028A000010378008203780003047800851F780014
:1028B000861F7800871F7800050078008600780062
:1028C000070178008801780004002000050020003E
:1028D00006002400F70924008E1102000000000009
:1028E000CF0378004F037800CF0278009E120200D9
:1028F0000000000080027800650C8800C402A80077
:10290000C002A900C422A900C022A9000500370006
:102910008C21EF00C402A900C002A900C422A900B2
:10292000C022A90041003700B44280006120E100CC
:102930003E003A00A4428000732E20000418E100FB
:1029400007003C00047D2000640C8800C402A9003C
:10295000C002A900C422A800C022A9003300370089
:10296000A44280006020E1002B0034005488BF00A6
:102970008001EB0000F0A7008081EB00830078006D
:102980000301780022100200000000000400200073
:10299000050020000680230077082400861002002E
:1029A00000000000800278000103780082037800B4
:1029B00003047800851F7800861F7800871F780041
:1029C000050078008600780007017800880178000B
:1029D000040020000500200006002400F709240060
:1029E0008E11020000000000CF0378004F03780032
:1029F000CF0278009E1202000000000080027800E2
:102A0000650C8800C402A900C002A900C422A80065
:102A1000C022A900050037008C21EF00C402A900E4
:102A2000C002A900C422A900C022A9004F04780056
:102A3000CF0378004F037800CF0278000000060033
:102A4000851F780014002000944188009441800084
:102A50006120E10012003A00C8A2A800CAA2AE009C
:102A6000060037005428EF005628EF000A14020031
:102A7000000000003228EF0008003700C8A2A800BC
:102A8000CAA2AF0005003700C42B2000A442880072
:102A90005628EF000A14020000000000EBFF370088
:102AA000CF02780000000600851F7800861F78009E
:102AB000871F7800881F78005608E2003F003A0020
:102AC000A4428000732E20000418E10007003C009F
:102AD000047D2000040C8800CC02A800C802A900D4
:102AE000CC22A900C822A90033003700A4428000EC
:102AF0006020E1002B0034005488BF008001EB000F
:102B000000F0A7008081EB008300780003017800CB
:102B10002210020000000000040020000500200038
:102B200006802300770824008610020000000000C1
:102B300080027800010378008203780003047800A3
:102B4000851F7800861F7800871F780005007800B1
:102B500086007800070178008801780004002000D2
:102B60000500200006002400F70924008E11020051
:102B700000000000CF0378004F037800CF027800F8
:102B80009E1202000000000080027800050C880000
:102B9000CC02A800C802A900CC22A900C822A90022
:102BA000050037008021EF00CC02A900C802A9006F
:102BB000CC22A900C822A90041003700B4428000FD
:102BC0006120E1003E003A00A4428000732E200004
:102BD0000418E10007003C00047D2000040C88007C
:102BE000CC02A900C802A900CC22A800C822A900D2
:102BF00033003700A44280006020E1002B00340045
:102C00005488BF008001EB0000F0A7008081EB003A
:102C10008300780003017800221002000000000009
:102C2000040020000500200006802300770824000F
:102C30008610020000000000800278000103780086
:102C40008203780003047800851F7800861F7800CF
:102C5000871F78000500780086007800070178005B
:102C600088017800040020000500200006002400F0
:102C7000F70924008E11020000000000CF03780045
:102C80004F037800CF0278009E120200000000007F
:102C900080027800050C8800CC02A900C802A900B7
:102CA000CC22A800C822A900050037008021EF002F
:102CB000CC02A900C802A900CC22A900C822A90000
:102CC0004F047800CF0378004F037800CF027800DC
:102CD00000000600851F7800140020006441880071
:102CE0002E28EF00644180006120E10035003A00A9
:102CF0002E08E20013003A00C882A800CA82AE0083
:102D0000070037005428EF0014002000B442880068
:102D1000F4120200000000002E28EC00080037002A
:102D2000C882A800CA82AF0005003700C42B20006B
:102D3000A44288005628EF00F412020000000000B0
:102D40001F003700744180006120E10008003A0054
:102D5000A4052000940C880044062000C40C8800C0
:102D600020150200000000002E28EC00140037009F
:102D7000744180006220E10011003A00C9C2A8003D
:102D8000CBC2AE00060037005428EF005628EF00F3
:102D900054150200000000002C28EF000800370046
:102DA000C9C2A800CBC2AF0005003700C42B200069
:102DB000A44288005628EF005415020000000000CD
:102DC000C8FF3700CF02780000000600851F78009A
:102DD000C500200003000900B51F780000F0A60020
:102DE0000C0037000000EA000480A00004F0A600F8
:102DF00008003700801F7800D00220002322AF0097
:102E0000FEFF370024A2B7004F0078000480A10025
:102E10000860ED008002EB008003780084047800F5
:102E200004F0A1000404E00006003A0009F0A70045
:102E300002003700050020000F00370005002000C9
:102E40000D003700E64252000A003900000320005E
:102E500009F0A600000220002322AF00FEFF370089
:102E600024A2B7008502E900FBFF3B0055002000CB
:102E70000100370084027800640020000580A7006C
:102E80000402E80005E0A00009F0A70005F0A0009A
:102E900008712200110009008883D80092170200EF
:102EA0000000000081037800883E20001100090026
:102EB0008883D80092170200000000008103780088
:102EC00048062000110009008883D80092170200EC
:102ED0000000000081037800A80020001100090014
:102EE0008883D80092170200000000000980A60025
:102EF00005003700D00220002322AF00FEFF37007C
:102F000024A2B7000980A1000003200000C04000F7
:102F1000500188002322AF00FEFF370024A2B70033
:102F200020003700060320000000E0000E003A00F9
:102F300005E0A600160037000402E9000524E100C0
:102F4000020032004200AF00000006000000E00076
:102F500005003A0005E0A6000D00370005F0A600C8
:102F6000060220000A00370005E0A1000980A60043
:102F70000700370000057800D00220002322AF00B0
:102F8000FEFF370024A2B7000980A1000A007800E4
:102F9000004043002322AF00FEFF370024A2B70009
:102FA000000006002501200003000900CF12780070
:102FB000CF027800000006000000E0004220AF00D1
:102FC000040037007B3E0900000000000000E9001B
:102FD000FCFF3A0000000600851F78001400200066
:102FE00064428800644280006120E1001B003A00D6
:102FF0004442800023408000030052004EA8B700E6
:103000004E88BF0000F0A600030037000400200037
:103010007342800003005200800278007E28E100A5
:1030200007003C005428EF004A08F8005608F90051
:103030000A140200000000004C28EF0006003700D0
:103040004E08F8005408F9004A08F8005608F9003C
:103050000A14020000000000E2FF3700CF027800EF
:1030600000000600851F78001400200064428800DC
:10307000644280006120E1001E003A00444280006A
:1030800003408000030052004EA8B7007442800045
:103090006520B8004EA8B7004E88BF0000F0A6001B
:1030A0000300370004002000734280000300520038
:1030B000800278007E28E10007003C005428EF00E1
:1030C0004A08F8005608F9005415020000000000F4
:1030D0004C28EF00060037004E08F8005408F900AD
:1030E0004A08F8005608F9005415020000000000D4
:1030F000DFFF3700CF02780000000600851F780050
:103100001400200064428800644280006120E100D5
:103110001B003A004442800013408000030052002C
:103120004EA8B7004E88BF0000F0A600030037008D
:1031300004002000734280000300520080027800E7
:103140007E28E10007003C005428EF004A08F80000
:103150005608F900F4120200000000004C28EF00AD
:10316000060037004E08F8005408F9004A08F80035
:103170005608F900F412020000000000E2FF3700D8
:10318000CF0278000000060014002000C44188002F
:103190003A28EF00C44180006120E10023003A009A
:1031A0003A08E20009003A002C08F8004808F90043
:1031B0002E08F8004A08F90032180200000000004A
:1031C00014002000D441880017003700D44180004B
:1031D0006120E10009003A003008F8004808F900D1
:1031E0003208F8004A08F9007E18020000000000CA
:1031F00024002000D44188000B003700D441800017
:103200006220E10008003A003408F8004808F9009C
:103210003608F8004A08F900EC1702000000000028
:103220003A28EF003828EF00DAFF370000000600E8
:10323000A4052000744188002E88BF0064418000EE
:103240000020E100090035002E08F8009201F90085
:1032500040062000DC1702000000000074418000DE
:103260006502420074418800F3FF37000000060049
:1032700044062000744188002E88BF00644180000D
:103280000020E100090035002E08F8009801F9003F
:1032900040062000DC17020000000000744180009E
:1032A0006502420074418800F3FF37000000060009
:1032B0000F782200F07F220020A0B700000000005D
:1032C000404424004005880081E0A80060042000FC
:1032D00042E7B7007005200042E7B70042C7A900E7
:1032E000F063200080A6B70030F0230082A6B7006C
:1032F000C0F02300A4A6B70020012000C2A6B7009A
:1033000050312100C8A6B70040012000CAA6B7006E
:1033100000302000CCA6B70000602100CEA6B70088
:103320006004200042E7B7007005200042E7B700C4
:1033300042C7A8004427EF000400280004118800B9
:1033400004402000141188002062A80024022000FC
:10335000441188000028EF000228EF000428EF0045
:1033600010C0B30014E8B7001628EF002CA3EF003C
:103370000628EF000828EF000A28EF000C28EF00CD
:103380000E28EF001028EF001228EF00EA0F0200CD
:1033900000000000E4002000240C8800E40020006D
:1033A000540C8800E4002000840C88006400200095
:1033B000B40C880064002000E40C88006A16020047
:1033C000000000001828EF001A28EF0084252000D4
:1033D000E4408800E4408000230320000418E1005A
:1033E0001D003D001C08F8009201F9002322AF00E7
:1033F000FEFF370094062000241188002322AF002E
:10340000FEFF3700A4032000241188002322AF0010
:10341000FEFF370004022000241188001C88BF0032
:1034200004002000E6160200000000002322AF0086
:10343000FEFF3700A4002000241188004006200071
:10344000DC17020000000000E4408000650052002C
:103450001CA8B700DFFF3700B44080006120E10006
:103460007B0035001628EF00E1812000C28020009B
:1034700001000900B258780001822000028120007A
:1034800001000900B258780021822000E28020006B
:1034900001000900B25878004182200022812000FA
:1034A00001000900B258780004E02100444288007D
:1034B0001400200054428800EC17020000000000B5
:1034C0001A08E20062003A000028EF000228EF002C
:1034D0000428EF001808E2001F003A0006C8BF00E9
:1034E00008E0B7008401FB007341880007C8BF00F3
:1034F000804178000301FB00924188001E08F8001B
:103500002C08F9002008F8003008F90082BB2000E0
:10351000A241880012002000B2418800C4180200B5
:1035200000000000A4142000644188001819020063
:1035300000000000A40F2000644188003819020038
:103540000000000080BB2000DC170200000000002B
:103550001828EC003D003700C44080006120E100E5
:103560000F003A0084BB2000444288001400200071
:1035700054428800EC1702000000000044062000BE
:10358000644188003819020000000000803E2000DD
:10359000DC170200000000001828EC002B003700A8
:1035A000C44080006220E10019003A00043020008D
:1035B000444288004A28EF00EC1702000000000097
:1035C00009C8BF00004278008401FB0073418800F5
:1035D0000AC8BF0006E0B7000301FB009241880063
:1035E0002208F8002C08F9002408F8003008F90037
:1035F00002602000A241880012002000B241880031
:10360000C4180200000000001828EC000F0037006A
:10361000C44080006320E10009003A00A40F2000AC
:10362000644188003819020000000000803E20003C
:10363000DC170200000000001828EC00030037002F
:103640006A160200000000001A28EC009CFF3700F8
:083650005EFF37000040FE00A0
:020000040001F9
:0807F800F7F900FF7F3F00FF4D
:00000001FF
;PIC24FJ48GA002
;CRC=A7C9  CREATED="11-Nov-18 13:03"
