:081800001019040000000000B3
:08184800CA0F040000000000BB
:0818A000980F04000000000095
:0818E800EC0F040000000000F9
:081930000E100400000000008D
:081BF800851F7800861F7800AC
:101C000018C8BF000000FB006200E10008003C00B3
:101C1000A4448000F48FB20002003A001868EC007F
:101C20000200370010C0B30018E8B700BD0037004D
:101C300018C8BF000000FB006300E10008003C0082
:101C4000A44480006220E10002003A001868EC0021
:101C50000200370010C0B30018E8B700B100370029
:101C600018C8BF000000FB006400E10008003C0051
:101C7000A44480006620E10002003A001868EC00ED
:101C80000200370010C0B30018E8B700A500370005
:101C900018C8BF000000FB006400E1000D00340024
:101CA00018C8BF000000FB006600E10009003C000E
:101CB00018C8BF000000FB00E5025000C4802000EF
:101CC000048342009488BF00004398001868EC0029
:101CD0009400370018C8BF000000FB006700E10057
:101CE00009003A0018C8BF000000FB00E7025000DE
:101CF00064802000048342009488BF000043980061
:101D00001868EC008700370018C8BF000000FB000F
:101D10006700E1000D00340018C8BF000000FB00A0
:101D20006900E10009003C0018C8BF000000FB008A
:101D3000E802500004812000048342009488BF0020
:101D4000004398001868EC007600370018C8BF0000
:101D50000000FB006A00E10009003A0018C8BF005B
:101D60000000FB00E9025000648020000483420070
:101D70009488BF00004398001868EC0069003700A1
:101D800018C8BF000000FB006A00E1000D0034002D
:101D900018C8BF000000FB006C00E10009003C0017
:101DA00018C8BF000000FB00EB0250004481200077
:101DB000048342009488BF00004398001868EC0038
:101DC0005800370018C8BF000000FB006C00E1009D
:101DD0000D00340018C8BF000000FB006E00E100D9
:101DE00009003C0018C8BF000000FB00ED025000D5
:101DF000E4802000048342009488BF0000439800E0
:101E00001868EC004700370018C8BF000000FB004E
:101E10006F00E10009003A0018C8BF000000FB0095
:101E2000ED02500064802000048342009488BF00CB
:101E3000004398001868EC003A00370018C8BF004B
:101E40000000FB006F00E1000D00340018C8BF0067
:101E50000000FB007100E10009003C0018C8BF0051
:101E60000000FB00F00250002481200004834200A7
:101E70009488BF00004398001868EC0029003700E0
:101E800018C8BF000000FB007100E1000D00340025
:101E900018C8BF000000FB007300E10009003C000F
:101EA00018C8BF000000FB00EF0250006480200053
:101EB000048342009488BF00004398001868EC0037
:101EC0001800370018C8BF000000FB007300E100D5
:101ED0001400340018C8BF000000FB007500E100CA
:101EE00010003C0018C8BF000000FB00F4025000C6
:101EF00064812000048342009488BF00004398005E
:101F00001868EC0018C8BF000000FB007600E10074
:101F10000400350014002000D440880010C0B30035
:101F200018E8B7004F037800CF02780000000600E1
:101F30004200F8003600F8003200F800801F7800F8
:101F4000200020000C000900B01F78002202AE0023
:101F5000FEFF37003011800092E8B7009368EF0071
:101F60009208F8009408F900FC0D0200000000003F
:101F70008560A900A00120000C0009004F10780026
:101F80004F0078003200F9003600F9004200F900F5
:101F9000004006004200F8003600F8003200F80069
:101FA000801F7800200020000C000900B01F78007E
:101FB0000028EC008400A900A00120000C0009000A
:101FC0004F1078004F0078003200F9003600F90019
:101FD0004200F900004006004200F8003600F80018
:101FE0003200F800801F7800200020000C0009005B
:101FF000B01F78000228EC008680A900A001200014
:102000000C0009004F1078004F0078003200F900F2
:102010003600F9004200F900004006004200F800D6
:102020003600F8003200F800801F78002000200001
:102030000C000900B01F78000428EC0087A0A9005C
:10204000A00120000C0009004F1078004F0078001C
:102050003200F9003600F9004200F90000400600A5
:1020600081E0A900040E20001402880081E0A8008D
:10207000030009002682BF008560A9009560A800C2
:102080009400A8008200A9009680A8008220A900E0
:1020900097A0A8008240A9001021EF0084382100F9
:1020A0006408880004022800840888001221EF00D8
:1020B000047D20007408880004012800940888002A
:1020C00081E0A9004220EF0081E0A80000000600A6
:1020D000851F7800C500200003000900B51F7800A7
:1020E0000002780081027800020378008303780000
:1020F0000000EB008000EB000001EB008001EB0032
:102100000800A10007F0A600050037000800A000A5
:102110000402EA008582EA000683EA008783EA0077
:102120008504720002003A00870473001500320033
:10213000394720000340A7000B0037004200A900E8
:102140000482D2008582D2000683D2008783D20027
:102150000080D2008180D2000281D2008381D2002F
:102160008904E900F3FF3A00C44CDD004200A900F5
:1021700009F0A1000340A10083816C000800A700C2
:1021800003F0A0002501200003000900CF12780011
:10219000CF02780000000600881F78002801200088
:1021A00004000900B81F78008786690003047800DE
:1021B00087047800FA7F20004200A9004220A9008D
:1021C00044C4DE00080465000800E0006C00320032
:1021D0004200A9004220A900C4CCDE0089046500A9
:1021E0000900E000660032000005EB00090654001B
:1021F00003003900FC3FB0006100310004003700EB
:102200001B4020000B0656005D0039005C003200C8
:102210000004EB008004EB000005EB008005EB0000
:10222000F301B2000340A000F701B2000740A00094
:102230008C1F78006C03200004005000858058003B
:102240000601590087815900020033000600310061
:1022500006003A000400400085804800060149005D
:1022600087814900010037000800A0000C06E90042
:102270000B0032004200A9000080D2008180D20011
:102280000281D2008381D2004200A9000884D200DA
:102290008984D2000A85D2008B85D200E6FF370000
:1022A0004F0678000B50A7000100370006003700EA
:1022B0004200A9008B85D3000A85D3008984D3000E
:1022C0000884D300030037000C06E9004200A9008F
:1022D0002B0032004200AF00090037000080D2001E
:1022E0008180D2000281D2008381D200040250009A
:1022F000858258000603590087835900150039006C
:102300000804E80013003A008904E80011003A00CC
:102310000A05E8000F003A008B05E8000D003A00BE
:102320000C06E800160032000A0037000C06E9002F
:10233000130032000B40A700060037004200A9003E
:102340000884D2008984D2000A85D2008B85D2000D
:10235000F8FF37004466DD004200A9000CF0A10040
:102360000DF0A7000CF0A0000B40A1008B016E0047
:102370000A0178008900780008007800050037001D
:1023800000002000010020000200200003002000C7
:1023900000003700A8012000040009004F14780055
:1023A0004F04780000000600881F780028012000F4
:1023B00004000900B81F78008005EB006066B800D3
:1023C0000304780087047800FA7F20004200A90007
:1023D0004220A90044C4DE00080465000800E000B3
:1023E000710032004200A9004220A900C4CCDE00E6
:1023F000890465000900E0006B0032000884440095
:1024000009B0A70004003700F83FB10066003200B1
:1024100065003900030037001A402000854245005E
:1024200061003100878669004200A9004220A900AE
:10243000F300B2000340A000F700B2000740A00084
:10244000881F78000124B800002DB8000A05440058
:102450008B854C000C80B0000224B8008B05440032
:102460000C864C00012CB8000005EB008B054400E5
:102470000C864C000A80B0000034B8008B05440084
:102480000C864C000A80B0008005EB000324B800E5
:102490000C0644000A854C000B80B000022CB800EA
:1024A0000C0644000A854C000B80B0000134B800D3
:1024B0000C0644000A854C000B80B000003CB800BC
:1024C0000C0644000A854C000B80B0000C0078001C
:1024D0000006EB00032CB8000A0544008B854C0075
:1024E0000C80B0000234B8000A0544008B854C0013
:1024F0000C80B0000334B8008B0544000C864C00FF
:10250000013CB8000A0544008B854C000C80B000EB
:10251000023CB8008B0544000C864C00033CB8001C
:102520000C0644008A0078000B0178008C017800CA
:10253000540020004200A9008381D3000281D3000F
:102540008180D3000080D3000402E900F9FF3A0043
:102550004F0478000804E800010370000100320015
:102560000200370003037100080032000340A70097
:10257000060037004200A9000080D2008180D2000E
:102580000281D2008381D2000804E9004444DD00C6
:1025900003F0A1000DF0A70003F0A0000340A1008C
:1025A00083016C00030037006000B8006001B800D0
:1025B00000003700A8012000040009004F14780033
:1025C0004F04780000000600851F7800C500200039
:1025D00005000900B51F7800030478008203780025
:1025E0000103780080027800830478003B472000D4
:1025F000C499DE00FA7F20008301650083855500C1
:10260000F801B2000840A0000000EB008000EB00E1
:102610000001EB008001EB004200A9000884D30018
:102620008783D3000683D3008582D3008381D300C0
:102630000281D3008180D3000080D3008B05E900A4
:10264000F5FF3A0009F0A600050037000000EA0097
:102650008180EA000281EA008381EA0000003700FD
:102660006501200005000900CF127800CF02780034
:1026700000000600851F7800861F7800871F7800FD
:10268000881F78006408E2003F003A00144380008D
:10269000732E20000418E10007003C00047D200098
:1026A000640C8800C402A800C002A900C422A900CA
:1026B000C022A90033003700144380006020E100ED
:1026C0002B0034006288BF008001EB0000F0A700FF
:1026D0008081EB008300780003017800681002001D
:1026E00000000000040020000500200006802300F8
:1026F00077082400CC10020000000000800278005F
:10270000010378008203780003047800851F7800B5
:10271000861F7800871F7800050078008600780003
:1027200007017800880178000400200005002000DF
:1027300006002400F7092400D41102000000000064
:10274000CF0378004F037800CF027800E412020034
:102750000000000080027800650C8800C402A80018
:10276000C002A900C422A900C022A90005003700A8
:102770008C21EF00C402A900C002A900C422A90054
:10278000C022A90041003700244380006120E100FD
:102790003E003A0014438000732E20000418E1002C
:1027A00007003C00047D2000640C8800C402A900DE
:1027B000C002A900C422A800C022A900330037002B
:1027C000144380006020E1002B0034006288BF00C9
:1027D0008001EB0000F0A7008081EB00830078000F
:1027E00003017800681002000000000004002000CF
:1027F000050020000680230077082400CC1002008A
:102800000000000080027800010378008203780055
:1028100003047800851F7800861F7800871F7800E2
:1028200005007800860078000701780088017800AC
:10283000040020000500200006002400F709240001
:10284000D411020000000000CF0378004F0378008D
:10285000CF027800E412020000000000800278003D
:10286000650C8800C402A900C002A900C422A80007
:10287000C022A900050037008C21EF00C402A90086
:10288000C002A900C422A900C022A9004F047800F8
:10289000CF0378004F037800CF02780000000600D5
:1028A000851F780014002000E4418800E441800086
:1028B0006120E10012003A00C8A2A800CAA2AE003E
:1028C000060037006228EF006428EF003A13020088
:1028D000000000003C28EF0008003700C8A2A80054
:1028E000CAA2AF0005003700C42B200014438800A3
:1028F0006428EF003A13020000000000EBFF3700ED
:10290000CF027800000006000000E0004220AF0087
:10291000040037007B3E0900000000000000E900D1
:10292000FCFF3A0000000600851F7800861F780033
:10293000871F7800881F78006E08E2003F003A0089
:1029400064438000732E20000418E10007003C005F
:10295000047D2000040C8800CC02A800C802A90055
:10296000CC22A900C822A9003300370064438000AC
:102970006020E1002B0034006C88BF008001EB0078
:1029800000F0A7008081EB0083007800030178004D
:102990006810020000000000040020000500200074
:1029A0000680230077082400CC10020000000000FD
:1029B0008002780001037800820378000304780025
:1029C000851F7800861F7800871F78000500780033
:1029D0008600780007017800880178000400200054
:1029E0000500200006002400F7092400D41102008D
:1029F00000000000CF0378004F037800CF0278007A
:102A0000E41202000000000080027800050C88003B
:102A1000CC02A800C802A900CC22A900C822A900A3
:102A2000050037008021EF00CC02A900C802A900F0
:102A3000CC22A900C822A9004100370074438000BD
:102A40006120E1003E003A0064438000732E2000C4
:102A50000418E10007003C00047D2000040C8800FD
:102A6000CC02A900C802A900CC22A800C822A90053
:102A700033003700644380006020E1002B00340005
:102A80006C88BF008001EB0000F0A7008081EB00A4
:102A90008300780003017800681002000000000045
:102AA0000400200005002000068023007708240091
:102AB000CC100200000000008002780001037800C2
:102AC0008203780003047800851F7800861F780051
:102AD000871F7800050078008600780007017800DD
:102AE0008801780004002000050020000600240072
:102AF000F7092400D411020000000000CF03780081
:102B00004F037800CF027800E412020000000000BA
:102B100080027800050C8800CC02A900C802A90038
:102B2000CC22A800C822A900050037008021EF00B0
:102B3000CC02A900C802A900CC22A900C822A90081
:102B40004F047800CF0378004F037800CF0278005D
:102B500000000600851F7800861F7800871F780018
:102B6000881F78006E08E2003F003A00644380004E
:102B7000732E20000418E10007003C00047D2000B3
:102B8000340C8800C442A800C042A900C482A90035
:102B9000C082A90033003700644380006020E10058
:102BA0002B0034006C88BF008001EB0000F0A70010
:102BB0008081EB0083007800030178006810020038
:102BC0000000000004002000050020000680230013
:102BD00077082400CC10020000000000800278007A
:102BE000010378008203780003047800851F7800D1
:102BF000861F7800871F780005007800860078001F
:102C000007017800880178000400200005002000FA
:102C100006002400F7092400D4110200000000007F
:102C2000CF0378004F037800CF027800E41202004F
:102C30000000000080027800350C8800C442A80023
:102C4000C042A900C482A900C082A90005003700C3
:102C50008621EF00C442A900C042A900C482A90095
:102C6000C082A90041003700744380006120E10068
:102C70003E003A0064438000732E20000418E100F7
:102C800007003C00047D2000340C8800C442A900E9
:102C9000C042A900C482A800C082A9003300370046
:102CA000644380006020E1002B0034006C88BF008A
:102CB0008001EB0000F0A7008081EB00830078002A
:102CC00003017800681002000000000004002000EA
:102CD000050020000680230077082400CC100200A5
:102CE0000000000080027800010378008203780071
:102CF00003047800851F7800861F7800871F7800FE
:102D000005007800860078000701780088017800C7
:102D1000040020000500200006002400F70924001C
:102D2000D411020000000000CF0378004F037800A8
:102D3000CF027800E4120200000000008002780058
:102D4000350C8800C442A900C042A900C482A80072
:102D5000C082A900050037008621EF00C442A90007
:102D6000C042A900C482A900C082A9004F04780013
:102D7000CF0378004F037800CF02780000000600F0
:102D8000851F7800861F780014002000B441880059
:102D90003828EF00B44180006120E10051003A0082
:102DA0003808E2000E003A00501402000000000053
:102DB00014092000940C8800803E20008414020036
:102DC0000000000044062000C40C8800803E200063
:102DD00084140200000000003828EC004000370096
:102DE000C44180006120E1003D003A00C9C2A80052
:102DF000CBC2AE000F003700C882A800CA82AE0066
:102E00000C0037006C28EF00140020007443880089
:102E100094140200000000006C28EF001400200051
:102E200074438800AA150200000000003628EF0055
:102E30002B003700C9C2A800CBC2AF000E0037007C
:102E4000C882A800CA82AE000B003700C42B200045
:102E5000644388006E28EF00941402000000000014
:102E60006C28EF001400200074438800AA150200AB
:102E7000000000001A003700C9C2A800CBC2AE0093
:102E80000D003700C882A800CA82AF000A003700D0
:102E90006C28EF006E28EF00941402000000000080
:102EA000C42B2000644388006E28EF00AA1502009E
:102EB000000000000A003700C42B20006443880093
:102EC0006E28EF009414020000000000C42B2000C4
:102ED000644388006E28EF00AA150200000000007D
:102EE000ACFF37004F037800CF02780000000600E7
:102EF00014002000F4428800F44280006120E100C8
:102F00002B003A00B44280000340800003005200CE
:102F1000000278006520B80060A8B700D4428000A5
:102F20001340800003005200000278006520B800C2
:102F300062A8B700044380007E20E1000F003C003F
:102F4000144380007E20E1000C003C006C28EF0060
:102F50005808F8006E08F900941402000000000000
:102F60006C28EF005C08F8006E08F900AA15020052
:102F7000000000005E28EF000C0037006008F80039
:102F80006C08F9005808F8006E08F9009414020063
:102F9000000000006208F8006C08F9005C08F80006
:102FA0006E08F900AA15020000000000D2FF3700E9
:102FB00000000600851F780014002000D44288001D
:102FC000D44280006120E1001E003A00B44280003B
:102FD00023408000030052005CA8B700E442800058
:102FE0006320B8005CA8B7005C88BF0000F0A600B2
:102FF0000300370004002000E34280000300520079
:10300000800278007E28E10007003C006228EF0083
:103010005808F8006408F9003A13020000000000A4
:103020005A28EF00060037005C08F8006208F90033
:103030005808F8006408F9003A1302000000000084
:10304000DFFF3700CF0278000000060014002000E8
:10305000344288004828EF00344280006120E100BB
:103060001B003A004808E2000D003A003A08F80058
:103070005608F9003C08F8005808F9003E08F80026
:103080005A08F9004008F8005C08F90078170200B7
:103090000000000014002000444288000B003700AC
:1030A000444280006120E10008003A004208F80034
:1030B0005608F9004408F8005808F900DA17020029
:1030C000000000004828EF004628EF00E2FF37002C
:1030D00000000600B4418000630920000418E100EC
:1030E00017003D00B4418000E31520000418E10002
:1030F00013003400B44180006F00520036A8B700BE
:10310000C4082000C44188003888BF00B441800052
:103110000020E100090035003808F8009201F900AC
:10312000400120008414020000000000C44180001F
:1031300065024200C4418800F3FF37000F003700EA
:1031400014092000D44188003A88BF00B4418000AF
:103150000020E100060035003A08F8009201F9006D
:10316000D441800065024200D4418800F6FF370058
:10317000400120008414020000000000000006004E
:10318000B4418000F30A20000418E100100035006B
:10319000A40F2000C44188003688BF00C4418000CD
:1031A0000020E100090035003808F8009801F90016
:1031B000200320008414020000000000C4418000AD
:1031C0006500520038A8B700F3FF3700130037003E
:1031D000B4418000F30A20000418E1000F003D0014
:1031E000A4052000D44188003A88BF00B441800083
:1031F0000020E100090035003A08F8009801F900C4
:10320000400120008414020000000000D44180002E
:1032100065024200D4418800F3FF37000000060039
:103220000F782200F07F220020A0B70000000000ED
:10323000404424004005880081E0A800600420008C
:1032400042E7B7007005200042E7B70042C7A90077
:10325000F063200080A6B70030F0230082A6B700FC
:10326000C0F02300A4A6B70020012000C2A6B7002A
:1032700050312100C8A6B70040012000CAA6B700FF
:1032800000302000CCA6B70000602100CEA6B70019
:103290006004200042E7B7007005200042E7B70055
:1032A00042C7A8004427EF0004002800041188004A
:1032B00004402000141188002062A800240220008D
:1032C000441188000028EF000228EF000428EF00D6
:1032D00010C0B30018E8B7001A28EF002CA3EF00C5
:1032E0000628EF000828EF000A28EF000C28EF005E
:1032F0000E28EF001028EF001228EF001428EF002E
:103300001628EF003010020000000000E40020004A
:10331000240C8800E4002000540C8800E400200005
:10332000840C880064002000B40C88006400200035
:10333000E40C8800C0160200000000001C28EF000A
:103340001E28EF001E28EF001C28EF000028EF00C9
:103350000228EF000428EF002C28EF00D440800062
:103360006120E1002B0135001A28EF0001822000C6
:10337000C280200001000900B2587800218220009C
:103380000281200001000900B2587800418220002B
:103390004281200001000900B258780061822000BB
:1033A000E280200001000900B258780081822000EC
:1033B0002281200001000900B2587800A18220007B
:1033C0006281200001000900B25878001E08E20066
:1033D00010013A000028EF000228EF000428EF0057
:1033E0001C08E2001F003A0006C8BF0008E0B70052
:1033F0008401FB00E341880007C8BF0080417800DA
:103400000301FB00024288002008F8003A08F90096
:103410002208F8003E08F900C25D20001242880030
:10342000120020002242880026180200000000003E
:103430002408F8003608F9006A18020000000000AD
:10344000C40D2000B4418800C01802000000000034
:10345000803E200084140200000000001C28EC00C4
:10346000EB003700E44080006120E1000F003A00EB
:1034700004772100B442880014002000C442880070
:10348000DA17020000000000A4052000B441880003
:10349000C018020000000000803E200084140200DA
:1034A000000000001C28EC00D9003700E440800038
:1034B0006220E1004E003A00C4DA2000B4428800E5
:1034C0005828EF00DA1702000000000024418000B5
:1034D000E31520000418E10021003500244180009C
:1034E00053418000830252000500780000F0A600DE
:1034F000020037000400200005005200800278001E
:10350000840C20000520E10010003400840C200011
:1035100053418000048041002CA8B7002C08F8001B
:103520003608F9006A18020000000000803E200002
:1035300084140200000000002A08F8003608F90090
:103540006A18020000000000040037002A08F80092
:103550003608F9006A180200000000001F0037005A
:10356000244180005341800083025200050078000E
:1035700000F0A60002003700040020000500520001
:1035800080027800840C20000520E1000F00340048
:1035900054418000840CB100644188002C08F8007C
:1035A0003608F9006A18020000000000803E200082
:1035B00084140200000000002A08F8003608F90010
:1035C0006A18020000000000040037002A08F80012
:1035D0003608F9006A18020000000000803E200052
:1035E00084140200000000001C28EC008800370052
:1035F000E44080006320E10065003A000AC8BF0093
:103600000000FB006400E10012003A0008C8BF009F
:1036100008E0B7008401FB00E341880009C8BF004F
:10362000804178000301FB00024288002608F80070
:103630003A08F9002808F8003E08F900A20F200017
:10364000124288004428EF00261802000000000003
:103650004A0037000AC8BF000000FB000000E0007D
:1036600013003A0008C8BF0008E0B7008401FB005F
:10367000E341880009C8BF00804178000301FB00D6
:10368000024288002608F8003A08F9002808F800E5
:103690003E08F90042132200124288001200200066
:1036A0002242880026180200000000003300370084
:1036B0000AC8BF000000FB006200E10018003A00E9
:1036C0000AC8BF000000FB00C45D200000A0B900D4
:1036D000441322008002520008C8BF0008E0B7006F
:1036E0008401FB00E341880009C8BF0080417800E5
:1036F0000301FB00024288002608F8003A08F9009E
:103700002808F8003E08F900154288001200200041
:10371000224288002618020000000000170037002F
:103720000AC8BF000000FB00C45D200000A0B90073
:10373000441322008002520008C8BF0008E0B7000E
:103740008401FB00E341880009C8BF008041780084
:103750000301FB00024288002608F8003A08F9003D
:103760002808F8003E08F9001542880012002000E1
:10377000224288002618020000000000803E20003F
:1037800084140200000000001C28EC002000370018
:10379000E44080006420E1000B003A00440B20006C
:1037A000B4418800C018020000000000803E2000E4
:1037B0008414020000000000501402000000000009
:1037C0001C28EC0012003700C016020000000000A8
:1037D0002322AF00FEFF370054042000241188008C
:1037E0002322AF00FEFF3700E406200024118800EA
:1037F0002322AF00FEFF370044062000241188007A
:10380000803E200084140200000000001E28EC000E
:0C381000EEFE3700CBFE37000040FE004B
:020000040001F9
:0807F800F7F900FF7F3F00FF4D
:00000001FF
;PIC24FJ48GA002
;CRC=2775  CREATED="25-Nov-18 23:17"
