:0818000060100400000000006C
:0818A000380F040000000000F5
:081BF8003220EF0083E0200021
:101C0000008041001040BA000160EF0000000600B3
:101C10000A72000065730000756C000074200000FB
:101C20003D200000256400000A000000851F7800A8
:101C3000861F78000CC8BF000000FB006200E100B6
:101C400008003C00A4408000F48FB20002003A007B
:101C50000C68EC000200370010C0B3000CE8B700BD
:101C6000800037000CC8BF000000FB006300E100EB
:101C700005003C00A44080006220E10001003A0021
:101C80000C68EC00770037000CC8BF000000FB00B8
:101C90006400E10005003C00A44080006820E100F1
:101CA00001003A000C68EC006E0037000CC8BF0061
:101CB0000000FB006400E1000D0034000CC8BF0010
:101CC0000000FB006600E10009003C000CC8BF00FA
:101CD0000000FB00E5025000448020000483420025
:101CE0001488BF00004398000C68EC005D003700CA
:101CF0000CC8BF000000FB006600E1000D003400CE
:101D00000CC8BF000000FB006800E10009003C00B7
:101D10000CC8BF000000FB00E702500084802000D8
:101D2000048342001488BF00004398000C68EC0054
:101D30004C0037000CC8BF000000FB006800E10049
:101D40000D0034000CC8BF000000FB006A00E10079
:101D500009003C000CC8BF000000FB00E902500075
:101D600004802000048342001488BF0000439800D0
:101D70000C68EC003B0037000CC8BF000000FB0003
:101D80006A00E1000D0034000CC8BF000000FB0039
:101D90006C00E10009003C000CC8BF000000FB0023
:101DA000EB02500064802000048342001488BF00CE
:101DB000004398000C68EC002A0037000CC8BF00F4
:101DC0000000FB006C00E1000D0034000CC8BF00F7
:101DD0000000FB006E00E10009003C000CC8BF00E1
:101DE0000000FB00ED025000A480200004834200AC
:101DF0001488BF00004398000C68EC0019003700FD
:101E00000CC8BF000000FB006E00E1000D003400B4
:101E10000CC8BF000000FB007000E10009003C009E
:101E20000CC8BF000000FB00ED0250000480200041
:101E3000048342001488BF00004398000C68EC0043
:101E4000080037000CC8BF000000FB007000E10074
:101E500004003400140020007440880010C0B30057
:101E60000CE8B7004F037800CF02780000000600AE
:101E70004200F8003600F8003200F800801F7800B9
:101E8000200020000C000900B01F78002202AE00E4
:101E9000FEFF37003011800012E8B7001368EF0032
:101EA0001208F8001408F900160E020000000000E5
:101EB0008560A900A00120000C0009004F107800E7
:101EC0004F0078003200F9003600F9004200F900B6
:101ED00000400600851F7800C500200003000900AF
:101EE000B51F780000F0A6000C0037000000EA00E3
:101EF0000480A00004F0A60008003700801F7800CE
:101F0000D00220002322AF00FEFF370024A2B7003A
:101F10004F0078000480A1000860ED008002EB0013
:101F2000800378008404780004F0A1000404E00039
:101F300006003A0009F0A700020037000500200063
:101F40000F003700050020000D003700E642520068
:101F50000A0039000003200009F0A600000220005A
:101F60002322AF00FEFF370024A2B7008502E9005C
:101F7000FBFF3B0055002000010037008402780081
:101F8000640020000580A7000402E80005E0A0002E
:101F900009F0A70005F0A000087122001100090057
:101FA0008883D8001610020000000000810378002A
:101FB000883E2000110009008883D8001610020016
:101FC000000000008103780048062000110009008D
:101FD0008883D800161002000000000081037800FA
:101FE000A8002000110009008883D8001610020004
:101FF000000000000980A60005003700D002200084
:102000002322AF00FEFF370024A2B7000980A10001
:102010000003200000C04000500188002322AF00D0
:10202000FEFF370024A2B70020003700060320007F
:102030000000E0000E003A0005E0A60016003700A0
:102040000402E9000524E100020032004200AF0072
:10205000000006000000E00005003A0005E0A600D0
:102060000D00370005F0A600060220000A00370028
:1020700005E0A1000980A6000700370000057800F0
:10208000D00220002322AF00FEFF370024A2B700B9
:102090000980A1000A007800004043002322AF001D
:1020A000FEFF370024A2B700000006002501200033
:1020B00003000900CF127800CF027800000006006C
:1020C0000F782200F07F220020A0B700000000005F
:1020D000404424004005880081E0A80060042000FE
:1020E00042E7B7007005200042E7B70042C7A900E9
:1020F000C0F02300A4A6B70000302000CCA6B70093
:102100006004200042E7B7007005200042E7B700F6
:1021100042C7A8004427EF000400280004118800EB
:1021200004402000141188002062A800240220002E
:102130004411880010C0B3000CE8B7000E28EF006F
:102140002CA3EF000028EF000228EF000428EF0086
:102150000628EF000828EF000A28EF0081E0A90018
:10216000040E20001402880081E0A800030009008A
:102170002682BF008560A9009560A80001002000AC
:10218000010078000160EF00FC0D0200000000007B
:102190008100E8002322AF00FEFF370024A2B70031
:1021A000900020000008E600F5FF370003C8BF00DC
:1021B0000000FB00040020006A0F02000000000085
:1021C0002322AF00FEFF3700A40020002411880066
:1021D00081E0A9004220EF0081E0A8007440800067
:1021E0006120E100190035000E28EF000181200078
:1021F0004280200001000900B25878000100200050
:10220000010078000160EF00FC0D020000000000FA
:102210008100E8002322AF00FEFF370024A2B700B0
:10222000900020000008E600F5FF37001088BF008E
:10223000040020006A0F0200000000002322AF000B
:10224000FEFF3700A400200024118800E3FF3700C0
:042250000040FE004C
:020000040001F9
:0807F800F7F900FF7F3F00FF4D
:00000001FF
;PIC24FJ48GA002
;CRC=BB28  CREATED="05-Nov-18 09:59"
