:081800000212040000000000C8
:08184800DE0F040000000000A7
:0818A000AC0F04000000000081
:0818E8000010040000000000E4
:08193000221004000000000079
:081BF8003220EF0083E0200021
:101C0000008041001040BA000160EF0000000600B3
:101C1000692000003A200000256400000A0000004E
:101C2000851F7800861F780018C8BF000000FB00E1
:101C30006200E10008003C0024428000F48FB20002
:101C400002003A001868EC000200370010C0B30030
:101C500018E8B700BD00370018C8BF000000FB003F
:101C60006300E10008003C00244280006220E100A3
:101C700002003A001868EC000200370010C0B30000
:101C800018E8B700B100370018C8BF000000FB001B
:101C90006400E10008003C00244280006620E1006E
:101CA00002003A001868EC000200370010C0B300D0
:101CB00018E8B700A500370018C8BF000000FB00F7
:101CC0006400E1000D00340018C8BF000000FB00F4
:101CD0006600E10009003C0018C8BF000000FB00DE
:101CE000E5025000C4802000048342004488BF0005
:101CF000004398001868EC009400370018C8BF0033
:101D00000000FB006700E10009003A0018C8BF00AE
:101D10000000FB00E70250006480200004834200C2
:101D20004488BF00004398001868EC008700370023
:101D300018C8BF000000FB006700E1000D00340080
:101D400018C8BF000000FB006900E10009003C006A
:101D500018C8BF000000FB00E8025000048120000A
:101D6000048342004488BF00004398001868EC00D8
:101D70007600370018C8BF000000FB006A00E100D1
:101D800009003A0018C8BF000000FB00E90250003B
:101D900064802000048342004488BF000043980010
:101DA0001868EC006900370018C8BF000000FB008D
:101DB0006A00E1000D00340018C8BF000000FB00FD
:101DC0006C00E10009003C0018C8BF000000FB00E7
:101DD000EB02500044812000048342004488BF008D
:101DE000004398001868EC005800370018C8BF007E
:101DF0000000FB006C00E1000D00340018C8BF00BB
:101E00000000FB006E00E10009003C0018C8BF00A4
:101E10000000FB00ED025000E4802000048342003B
:101E20004488BF00004398001868EC004700370062
:101E300018C8BF000000FB006F00E10009003A0075
:101E400018C8BF000000FB00ED02500064802000B5
:101E5000048342004488BF00004398001868EC00E7
:101E60003A00370018C8BF000000FB006F00E10017
:101E70000D00340018C8BF000000FB007100E10035
:101E800009003C0018C8BF000000FB00F002500031
:101E900024812000048342004488BF00004398004E
:101EA0001868EC002900370018C8BF000000FB00CC
:101EB0007100E1000D00340018C8BF000000FB00F5
:101EC0007300E10009003C0018C8BF000000FB00DF
:101ED000EF02500064802000048342004488BF0069
:101EE000004398001868EC001800370018C8BF00BD
:101EF0000000FB007300E1001400340018C8BF00AC
:101F00000000FB007500E10010003C0018C8BF0095
:101F10000000FB00F40250006481200004834200B2
:101F20004488BF00004398001868EC0018C8BF0040
:101F30000000FB007600E1000400350014002000E2
:101F4000D440880010C0B30018E8B7004F037800F1
:101F5000CF027800000006004200F8003600F800CA
:101F60003200F800801F7800200020000C000900DB
:101F7000B01F78002202AE00FEFF37003011800053
:101F800042E8B7004368EF004208F8004408F9004F
:101F9000100E0200000000008560A900A0012000D2
:101FA0000C0009004F1078004F0078003200F90053
:101FB0003600F9004200F900004006004200F80037
:101FC0003600F8003200F800801F78002000200062
:101FD0000C000900B01F78000028EC008400A90064
:101FE000A00120000C0009004F1078004F0078007D
:101FF0003200F9003600F9004200F9000040060006
:102000004200F8003600F8003200F800801F780027
:10201000200020000C000900B01F78000228EC000E
:102020008680A900A00120000C0009004F10780054
:102030004F0078003200F9003600F9004200F90044
:10204000004006004200F8003600F8003200F800B8
:10205000801F7800200020000C000900B01F7800CD
:102060000428EC0087A0A900A00120000C000900B2
:102070004F1078004F0078003200F9003600F90068
:102080004200F9000040060081E0A900040E200093
:102090001402880081E0A800030009002682BF0026
:1020A0008560A9009560A8009400A8008200A9009E
:1020B0009680A8008220A90097A0A8008240A900CD
:1020C0001021EF00843821006408880004022800F1
:1020D000840888001221EF00047D20007408880025
:1020E000040128009408880081E0A9004220EF0044
:1020F00081E0A80000000600851F7800C5002000D0
:1021000003000900B51F780000F0A6000C0037009E
:102110000000EA000480A00004F0A60008003700D8
:10212000801F7800D00220002322AF00FEFF37007E
:1021300024A2B7004F0078000480A1000860ED00E1
:102140008002EB00800378008404780004F0A10092
:102150000404E00006003A0009F0A700020037007E
:10216000050020000F003700050020000D0037009B
:10217000E64252000A0039000003200009F0A600E0
:10218000000220002322AF00FEFF370024A2B70088
:102190008502E900FBFF3B005500200001003700ED
:1021A00084027800640020000580A7000402E80093
:1021B00005E0A00009F0A70005F0A00008712200CA
:1021C000110009008883D8002811020000000000D7
:1021D00081037800883E2000110009008883D80020
:1021E000281102000000000081037800480620004A
:1021F000110009008883D8002811020000000000A7
:1022000081037800A8002000110009008883D8000D
:1022100028110200000000000980A6000500370018
:10222000D00220002322AF00FEFF370024A2B70017
:102230000980A1000003200000C040005001880078
:102240002322AF00FEFF370024A2B7002000370092
:10225000060320000000E0000E003A0005E0A600A2
:10226000160037000402E9000524E10002003200F4
:102270004200AF00000006000000E00005003A0048
:1022800005E0A6000D00370005F0A60006022000BC
:102290000A00370005E0A1000980A600070037000A
:1022A00000057800D00220002322AF00FEFF370097
:1022B00024A2B7000980A1000A0078000040430072
:1022C0002322AF00FEFF370024A2B7000000060063
:1022D0002501200003000900CF127800CF0278000A
:1022E000000006000000E0004220AF0004003700BC
:1022F0007B3E0900000000000000E900FCFF3A00FE
:1023000000000600B4418000830C20000418E100A6
:1023100011003500B441800065024200B4418800DC
:10232000C4082000C44188003888BF00B441800040
:102330000020E100070035003808F8009201F9009C
:102340004001200072110200000000003828EC005B
:10235000F5FF37002A003700B4418000830C2000CD
:102360000418E10015003D00B4418000E315200091
:102370000418E10011003400B441800074005200E0
:1023800036A8B700840C2000D44188003A88BF00EA
:10239000B44180000020E100070035003A08F80051
:1023A0009201F900400120007211020000000000BB
:1023B0003A28EC00F5FF370011003700B4418000E7
:1023C000E31520000418E1000D003C00E415200096
:1023D000E44188003C88BF00B44180000020E10057
:1023E000070035003C08F8009201F9004001200088
:1023F00072110200000000003C28EC00F5FF3700DD
:10240000000006000F782200F07F220020A0B70015
:1024100000000000404424004005880081E0A8003E
:102420006004200042E7B7007005200042E7B700D3
:1024300042C7A900F063200080A6B70030F0230057
:1024400082A6B700C0F02300A4A6B7002001200098
:10245000C2A6B70050312100C8A6B7004001200035
:10246000CAA6B70000302000CCA6B700006021004B
:10247000CEA6B7006004200042E7B7007005200038
:1024800042E7B70042C7A8004427EF000400280035
:102490000411880004402000141188002062A80064
:1024A00024022000441188000028EF000228EF00D9
:1024B0000428EF0010C0B30018E8B7001A28EF0096
:1024C0002CA3EF000628EF000828EF000A28EF00F1
:1024D0000C28EF000E28EF001028EF001228EF0064
:1024E0001428EF001628EF0044100200000000003E
:1024F000E4002000240C8800E4002000540C880034
:10250000E4002000840C880064002000B40C8800E3
:1025100064002000E40C88001C28EF001E28EF0057
:102520001E28EF001C28EF000028EF000228EF0013
:102530000428EF00E44080006520E10021003C0019
:102540002028EF0004418000032320000418E1004C
:102550001B0035002008F8009201F900010020005E
:10256000010078000160EF00FC0D02000000000097
:102570008100E8002322AF00FEFF370024A2B7004D
:10258000300020000008E600F5FF37002088BF007B
:10259000040020007C100200000000002322AF0095
:1025A000FEFF3700A400200024118800803E200098
:1025B00072110200000000002028EC00E1FF37004B
:1025C0001C28EC00D44080006120E1001D00350093
:1025D0001A28EF0021822000C2802000010009009B
:1025E000B2587800418220000281200001000900D9
:1025F000B258780061822000428120000100090069
:10260000B258780081822000E28020000100090099
:10261000B2587800A1822000228120000100090028
:10262000B2587800C18220006281200001000900B8
:10263000B25878002C08F8003608F9008211020020
:0C26400000000000B6FF37000040FE0064
:020000040001F9
:0807F800F7F900FF7F3F00FF4D
:00000001FF
;PIC24FJ48GA002
;CRC=2B31  CREATED="17-Nov-18 09:01"
