:08180000D813040000000000F1
:08184800100E04000000000076
:0818E8003A0E040000000000AC
:08193000640E04000000000039
:081BF8003220EF0083E0200021
:101C0000008041001040BA000160EF0000000600B3
:101C1000582000003A200000256400000A0000005F
:101C20004200F8003600F8003200F800801F78000B
:101C3000200020000C000900B01F7800B608E20068
:101C400002003A00B028EC0001003700B028ED0097
:101C50008400A900A00120000C0009004F107800AA
:101C60004F0078003200F9003600F9004200F90018
:101C7000004006004200F8003600F8003200F8008C
:101C8000801F7800200020000C000900B01F7800A1
:101C9000B808E20002003A00B228EC000100370068
:101CA000B228ED008680A900A00120000C000900E8
:101CB0004F1078004F0078003200F9003600F9002C
:101CC0004200F900004006004200F8003600F8002B
:101CD0003200F800801F7800200020000C0009006E
:101CE000B01F7800BA08E20002003A00B428EC0005
:101CF00001003700B428ED0087A0A900A001200052
:101D00000C0009004F1078004F0078003200F900F5
:101D10003600F9004200F9000040060081E0A90009
:101D2000040E20001402880081E0A8009400A8009E
:101D30008200A9009680A8008220A90097A0A80090
:101D40008240A9001221EF00047D20007408880061
:101D5000040128009408880081E0A9004220EF00D7
:101D600081E0A80000000600851F7800C500200063
:101D700003000900B51F7800000278008102780096
:101D800002037800830378000000EB008000EB0082
:101D90000001EB008001EB000800A10007F0A600A5
:101DA000050037000800A0000402EA008582EA006E
:101DB0000683EA008783EA008504720002003A0085
:101DC0008704730015003200394720000340A70044
:101DD0000B0037004200A9000482D2008582D200A5
:101DE0000683D2008783D2000080D2008180D20097
:101DF0000281D2008381D2008904E900F3FF3A0016
:101E0000C44CDD004200A90009F0A1000340A1007C
:101E100083816C000800A70003F0A00025012000CA
:101E200003000900CF127800CF02780000000600FE
:101E3000881F78002801200004000900B81F7800DE
:101E4000878669000304780087047800FA7F200001
:101E50004200A9004220A90044C4DE000804650035
:101E60000800E0006C0032004200A9004220A900F6
:101E7000C4CCDE00890465000900E0006600320081
:101E80000005EB000906540003003900FC3FB000D8
:101E900061003100040037001B4020000B06560093
:101EA0005D0039005C0032000004EB008004EB00B0
:101EB0000005EB008005EB00F301B2000340A00039
:101EC000F701B2000740A0008C1F78006C032000CF
:101ED0000400500085805800060159008781590090
:101EE000020033000600310006003A000400400002
:101EF00085804800060149008781490001003700BC
:101F00000800A0000C06E9000B0032004200A90006
:101F10000080D2008180D2000281D2008381D20071
:101F20004200A9000884D2008984D2000A85D20028
:101F30008B85D200E6FF37004F0678000B50A700D4
:101F400001003700060037004200A9008B85D3004E
:101F50000A85D3008984D3000884D30003003700A6
:101F60000C06E9004200A9002B0032004200AF003D
:101F7000090037000080D2008180D2000281D200A7
:101F80008381D20004025000858258000603590064
:101F900087835900150039000804E80013003A004F
:101FA0008904E80011003A000A05E8000F003A0031
:101FB0008B05E8000D003A000C06E8001600320020
:101FC0000A0037000C06E900130032000B40A7009E
:101FD000060037004200A9000884D2008984D2009C
:101FE0000A85D2008B85D200F8FF37004466DD00F9
:101FF0004200A9000CF0A1000DF0A7000CF0A00019
:102000000B40A1008B016E000A0178008900780066
:1020100008007800050037000000200001002000C3
:10202000020020000300200000003700A80120006B
:10203000040009004F1478004F04780000000600E7
:10204000881F78002801200004000900B81F7800CC
:102050008005EB006066B800030478008704780010
:10206000FA7F20004200A9004220A90044C4DE00FB
:10207000080465000800E000710032004200A90079
:102080004220A900C4CCDE00890465000900E000FC
:102090006B0032000884440009B0A7000400370038
:1020A000F83FB100660032006500390003003700D8
:1020B0001A40200085424500610031008786690092
:1020C0004200A9004220A900F300B2000340A00092
:1020D000F700B2000740A000881F78000124B80074
:1020E000002DB8000A0544008B854C000C80B00020
:1020F0000224B8008B0544000C864C00012CB8006B
:102100000005EB008B0544000C864C000A80B000F3
:102110000034B8008B0544000C864C000A80B000E7
:102120008005EB000324B8000C0644000A854C002F
:102130000B80B000022CB8000C0644000A854C004D
:102140000B80B0000134B8000C0644000A854C0036
:102150000B80B000003CB8000C0644000A854C001F
:102160000B80B0000C0078000006EB00032CB800D8
:102170000A0544008B854C000C80B0000234B80086
:102180000A0544008B854C000C80B0000334B80075
:102190008B0544000C864C00013CB8000A05440045
:1021A0008B854C000C80B000023CB8008B054400CD
:1021B0000C864C00033CB8000C0644008A007800F2
:1021C0000B0178008C017800540020004200A90027
:1021D0008381D3000281D3008180D3000080D300AB
:1021E0000402E900F9FF3A004F0478000804E8000F
:1021F0000103700001003200020037000303710088
:10220000080032000340A700060037004200A90082
:102210000080D2008180D2000281D2008381D2006E
:102220000804E9004444DD0003F0A1000DF0A7001C
:1022300003F0A0000340A10083016C0003003700FD
:102240006000B8006001B80000003700A80120005D
:10225000040009004F1478004F04780000000600C5
:10226000851F7800C500200005000900B51F780013
:10227000030478008203780001037800800278006C
:10228000830478003B472000C499DE00FA7F2000D9
:102290008301650083855500F801B2000840A00065
:1022A0000000EB008000EB000001EB008001EB0080
:1022B0004200A9000884D3008783D3000683D3009B
:1022C0008582D3008381D3000281D3008180D30033
:1022D0000080D3008B05E900F5FF3A0009F0A60065
:1022E000050037000000EA008180EA000281EA0070
:1022F0008381EA0000003700650120000500090025
:10230000CF127800CF02780000000600851F780009
:10231000861F7800871F7800881F7800CE08E200AB
:102320003F003A0064468000732E20000418E1004C
:1023300007003C00047D2000040C8800CC02A800AB
:10234000C802A900CC22A900C822A9003300370086
:10235000644680006020E1002B003400CC88BF0080
:102360008001EB0000F0A7008081EB008300780083
:1023700003017800B40E02000000000004002000F9
:10238000050020000680230077082400180F0200B3
:1023900000000000800278000103780082037800CA
:1023A00003047800851F7800861F7800871F780057
:1023B0000500780086007800070178008801780021
:1023C000040020000500200006002400F709240076
:1023D0002010020000000000CF0378004F037800B7
:1023E000CF02780030110200000000008002780067
:1023F000050C8800CC02A800C802A900CC22A900C4
:10240000C822A900050037008021EF00CC02A900F6
:10241000C802A900CC22A900C822A90041003700A7
:10242000744680006120E1003E003A00644680006E
:10243000732E20000418E10007003C00047D2000FA
:10244000040C8800CC02A900C802A900CC22A80074
:10245000C822A90033003700644680006020E100F4
:102460002B003400CC88BF008001EB0000F0A700F7
:102470008081EB008300780003017800B40E020035
:10248000000000000400200005002000068023005A
:1024900077082400180F0200000000008002780076
:1024A000010378008203780003047800851F780018
:1024B000861F7800871F7800050078008600780066
:1024C0000701780088017800040020000500200042
:1024D00006002400F709240020100200000000007C
:1024E000CF0378004F037800CF027800301102004C
:1024F0000000000080027800050C8800CC02A900D2
:10250000C802A900CC22A800C822A90005003700F3
:102510008021EF00CC02A900C802A900CC22A900AA
:10252000C822A9004F047800CF0378004F03780039
:10253000CF02780000000600851F780014002000FC
:1025400024468800244680006120E1001B003A00F8
:10255000044680008345800003005200C6A8B700EF
:10256000C688BF0000F0A60003003700040020006A
:102570003346800003005200800278007828E10092
:1025800007003C00CC28EF00C208F800CE08F90094
:102590008611020000000000C428EF00060037008A
:1025A000C608F800CC08F900C208F800CE08F90007
:1025B0008611020000000000E2FF3700CF02780021
:1025C00000000600851F7800C500200003000900F8
:1025D000B51F780000F0A6000C0037000000EA00EC
:1025E0000480A00004F0A60008003700801F7800D7
:1025F000D00220002322AF00FEFF370024A2B70044
:102600004F0078000480A1000860ED008002EB001C
:10261000800378008404780004F0A1000404E00042
:1026200006003A0009F0A70002003700050020006C
:102630000F003700050020000D003700E642520071
:102640000A0039000003200009F0A6000002200063
:102650002322AF00FEFF370024A2B7008502E90065
:10266000FBFF3B005500200001003700840278008A
:10267000640020000580A7000402E80005E0A00037
:1026800009F0A70005F0A000087122001100090060
:102690008883D8008E1302000000000081037800B8
:1026A000883E2000110009008883D8008E130200A4
:1026B0000000000081037800480620001100090096
:1026C0008883D8008E130200000000008103780088
:1026D000A8002000110009008883D8008E13020092
:1026E000000000000980A60005003700D00220008D
:1026F0002322AF00FEFF370024A2B7000980A1000B
:102700000003200000C04000500188002322AF00D9
:10271000FEFF370024A2B700200037000603200088
:102720000000E0000E003A0005E0A60016003700A9
:102730000402E9000524E100020032004200AF007B
:10274000000006000000E00005003A0005E0A600D9
:102750000D00370005F0A600060220000A00370031
:1027600005E0A1000980A6000700370000057800F9
:10277000D00220002322AF00FEFF370024A2B700C2
:102780000980A1000A007800004043002322AF0026
:10279000FEFF370024A2B70000000600250120003C
:1027A00003000900CF127800CF0278000000060075
:1027B0000F782200F07F220020A0B7000000000068
:1027C00081E0A8006004200042E7B7007005200007
:1027D00042E7B70042C7A900F063200080A6B70017
:1027E00030F0230082A6B700C0F02300A4A6B700F3
:1027F00020012000C2A6B70040312100C8A6B700C2
:1028000000302000CCA6B70050612100CEA6B70052
:102810006004200042E7B7007005200042E7B700DF
:1028200042C7A8004427EF000400280004118800D4
:1028300004402000141188002062A8002402200017
:1028400044118800B028EF00B228EF00B428EF0050
:10285000B628EF00B828EF00BA28EF00BC28EF0038
:10286000BE28EF002CA3EF004A003700C006080086
:10287000000000004BF03F005C0A5800F63B8F0060
:1028800000C03C008B28AC003CBEF6003FD2D50017
:1028900044168C0015D7BF0069005A002E1B870014
:1028A000993F9A005FAD4B0091E40100C05D1100BB
:1028B0002F92E40081FB3F0038DA9100809DC50033
:1028C000E0BF6F0012C0B400C309AB003F6BC10092
:1028D000034EC100B545BF00F7400500FF005A0098
:1028E000EF3FF300A3E2F700D7FF010040C0B400C0
:1028F000FF053C0058FC3F003BD3C000B5BA8C003C
:10290000E23F3900D3C73D004179B2003F870D0057
:102910003C50D000AF623F00304B8D00A282AA0035
:1029200004400900A0404A000576030040EC9E00E8
:102930003788A60044F03F008F128D00299A5B0073
:10294000C73F0E00E0807C00A1D886003F294B00E5
:10295000FB95C200371A3F00000000000201E800AA
:102960006110E10004003A009101BA003182BA001E
:1029700006C0BF00000006006210E10002003A003D
:1029800007C0BF000000060008C0BF000001EB0048
:1029900000000600060020000000200090018800D2
:1029A00060432100800078000001EB00AE140200BB
:1029B000000000000BE0B700AE14020000000000B1
:1029C0000AE0B7000500E0001900320005F0A6009B
:1029D00007003700AE140200000000000DE0B70051
:1029E000AE140200000000000CE0B70005F0A100EA
:1029F00005E0A6000800370005E0A1008502E90017
:102A0000AE14020000000000804378000580090039
:102A1000075B7800E5FF3700AE14020000000000FD
:102A2000005B78008502E900FBFF3A00DFFF37001A
:102A30008E0E020000000000E4002000240C88003C
:102A4000E4002000540C8800E4002000840C88007E
:102A500084BB20000446880014002000144688002F
:102A60009C1202000000000001002000010078001C
:102A70000160EF00FC0D0200000000008100E80092
:102A80002322AF00FEFF370024A2B7003000200051
:102A90000008E600F5FF3700B288BF000400200000
:102AA000E2120200000000002322AF00FEFF370008
:102AB000A400200024118800E5FF37000020EF006B
:042AC0000040FE00D4
:020000040001F9
:0807F800F7F900FF7F3F00FF4D
:00000001FF
;PIC24FJ48GA002
;CRC=3446  CREATED="29-Oct-18 16:02"
